{
  "contractName": "SupplyChainEP",
  "abi": [
    {
      "inputs": [],
      "payable": false,
      "stateMutability": "nonpayable",
      "type": "constructor"
    },
    {
      "anonymous": false,
      "inputs": [
        {
          "indexed": false,
          "name": "resourceName",
          "type": "string"
        },
        {
          "indexed": false,
          "name": "_address",
          "type": "address"
        }
      ],
      "name": "requestSent",
      "type": "event"
    },
    {
      "anonymous": false,
      "inputs": [
        {
          "indexed": false,
          "name": "numberOfWarnings",
          "type": "uint256"
        }
      ],
      "name": "warningSent",
      "type": "event"
    },
    {
      "anonymous": false,
      "inputs": [
        {
          "indexed": false,
          "name": "part",
          "type": "string"
        },
        {
          "indexed": false,
          "name": "whitelisteduser",
          "type": "address"
        }
      ],
      "name": "userWhitelisted",
      "type": "event"
    },
    {
      "anonymous": false,
      "inputs": [
        {
          "indexed": false,
          "name": "part",
          "type": "string"
        },
        {
          "indexed": false,
          "name": "subparts",
          "type": "string"
        }
      ],
      "name": "resourceAdded",
      "type": "event"
    },
    {
      "anonymous": false,
      "inputs": [
        {
          "indexed": false,
          "name": "debug",
          "type": "string"
        }
      ],
      "name": "debugString",
      "type": "event"
    },
    {
      "anonymous": false,
      "inputs": [
        {
          "indexed": false,
          "name": "debug",
          "type": "string"
        }
      ],
      "name": "debugString2",
      "type": "event"
    },
    {
      "anonymous": false,
      "inputs": [
        {
          "indexed": false,
          "name": "debug",
          "type": "uint256"
        }
      ],
      "name": "debugInt",
      "type": "event"
    },
    {
      "anonymous": false,
      "inputs": [
        {
          "indexed": false,
          "name": "status",
          "type": "bool"
        }
      ],
      "name": "stoppedChange",
      "type": "event"
    },
    {
      "anonymous": false,
      "inputs": [],
      "name": "gothere",
      "type": "event"
    },
    {
      "anonymous": false,
      "inputs": [
        {
          "indexed": false,
          "name": "boolean",
          "type": "bool"
        }
      ],
      "name": "debugBool",
      "type": "event"
    },
    {
      "constant": false,
      "inputs": [],
      "name": "toggleContractActive",
      "outputs": [],
      "payable": false,
      "stateMutability": "nonpayable",
      "type": "function"
    },
    {
      "constant": false,
      "inputs": [
        {
          "name": "parts",
          "type": "string"
        },
        {
          "name": "_ipfsHash",
          "type": "string"
        }
      ],
      "name": "notify",
      "outputs": [],
      "payable": true,
      "stateMutability": "payable",
      "type": "function"
    },
    {
      "constant": false,
      "inputs": [
        {
          "name": "_resourceName",
          "type": "string"
        },
        {
          "name": "_partNames",
          "type": "string"
        }
      ],
      "name": "addResource",
      "outputs": [],
      "payable": false,
      "stateMutability": "nonpayable",
      "type": "function"
    },
    {
      "constant": true,
      "inputs": [],
      "name": "myResources",
      "outputs": [
        {
          "name": "",
          "type": "string"
        }
      ],
      "payable": false,
      "stateMutability": "view",
      "type": "function"
    },
    {
      "constant": false,
      "inputs": [
        {
          "name": "part",
          "type": "string"
        },
        {
          "name": "_whitelistedUser",
          "type": "address"
        },
        {
          "name": "state",
          "type": "bool"
        }
      ],
      "name": "whitelistUser",
      "outputs": [],
      "payable": false,
      "stateMutability": "nonpayable",
      "type": "function"
    },
    {
      "constant": false,
      "inputs": [],
      "name": "getRequests",
      "outputs": [
        {
          "name": "",
          "type": "bool[]"
        },
        {
          "name": "",
          "type": "address[]"
        },
        {
          "name": "",
          "type": "uint256"
        },
        {
          "name": "",
          "type": "string"
        }
      ],
      "payable": false,
      "stateMutability": "nonpayable",
      "type": "function"
    },
    {
      "constant": true,
      "inputs": [],
      "name": "seeRequests",
      "outputs": [
        {
          "name": "",
          "type": "bool[]"
        },
        {
          "name": "",
          "type": "address[]"
        },
        {
          "name": "",
          "type": "uint256"
        },
        {
          "name": "",
          "type": "string"
        }
      ],
      "payable": false,
      "stateMutability": "view",
      "type": "function"
    },
    {
      "constant": true,
      "inputs": [],
      "name": "checkEmergencyStop",
      "outputs": [
        {
          "name": "",
          "type": "bool"
        }
      ],
      "payable": false,
      "stateMutability": "view",
      "type": "function"
    },
    {
      "constant": false,
      "inputs": [
        {
          "name": "part",
          "type": "string"
        }
      ],
      "name": "getSubparts",
      "outputs": [
        {
          "name": "",
          "type": "string"
        }
      ],
      "payable": false,
      "stateMutability": "nonpayable",
      "type": "function"
    },
    {
      "constant": false,
      "inputs": [
        {
          "name": "part",
          "type": "string"
        }
      ],
      "name": "splitSubparts",
      "outputs": [],
      "payable": false,
      "stateMutability": "nonpayable",
      "type": "function"
    }
  ],
  "bytecode": "0x608060405260008060006101000a81548160ff02191690831515021790555034801561002a57600080fd5b5033600060016101000a81548173ffffffffffffffffffffffffffffffffffffffff021916908373ffffffffffffffffffffffffffffffffffffffff160217905550612b228061007b6000396000f3006080604052600436106100a4576000357c0100000000000000000000000000000000000000000000000000000000900463ffffffff1680631385d24c146100a95780632532e6ac146100c05780637d086bea146101e757806387259b09146102505780638813ce12146103325780638d2250301461045957806395a902f5146105085780639c6cf53e1461059d578063a45f066c1461062d578063b35c63201461065c575b600080fd5b3480156100b557600080fd5b506100be6106fe565b005b3480156100cc57600080fd5b506100d56107cd565b60405180806020018060200185815260200180602001848103845288818151815260200191508051906020019060200280838360005b8381101561012657808201518184015260208101905061010b565b50505050905001848103835287818151815260200191508051906020019060200280838360005b8381101561016857808201518184015260208101905061014d565b50505050905001848103825285818151815260200191508051906020019080838360005b838110156101a757808201518184015260208101905061018c565b50505050905090810190601f1680156101d45780820380516001836020036101000a031916815260200191505b5097505050505050505060405180910390f35b3480156101f357600080fd5b5061024e600480360381019080803590602001908201803590602001908080601f0160208091040260200160405190810160405280939291908181526020018383808284378201915050505050509192919290505050610af9565b005b34801561025c57600080fd5b506102b7600480360381019080803590602001908201803590602001908080601f0160208091040260200160405190810160405280939291908181526020018383808284378201915050505050509192919290505050610eb6565b6040518080602001828103825283818151815260200191508051906020019080838360005b838110156102f75780820151818401526020810190506102dc565b50505050905090810190601f1680156103245780820380516001836020036101000a031916815260200191505b509250505060405180910390f35b34801561033e57600080fd5b50610347610fc6565b60405180806020018060200185815260200180602001848103845288818151815260200191508051906020019060200280838360005b8381101561039857808201518184015260208101905061037d565b50505050905001848103835287818151815260200191508051906020019060200280838360005b838110156103da5780820151818401526020810190506103bf565b50505050905001848103825285818151815260200191508051906020019080838360005b838110156104195780820151818401526020810190506103fe565b50505050905090810190601f1680156104465780820380516001836020036101000a031916815260200191505b5097505050505050505060405180910390f35b34801561046557600080fd5b50610506600480360381019080803590602001908201803590602001908080601f0160208091040260200160405190810160405280939291908181526020018383808284378201915050505050509192919290803590602001908201803590602001908080601f016020809104026020016040519081016040528093929190818152602001838380828437820191505050505050919291929050505061139f565b005b34801561051457600080fd5b5061059b600480360381019080803590602001908201803590602001908080601f0160208091040260200160405190810160405280939291908181526020018383808284378201915050505050509192919290803573ffffffffffffffffffffffffffffffffffffffff169060200190929190803515159060200190929190505050611859565b005b3480156105a957600080fd5b506105b2611ad6565b6040518080602001828103825283818151815260200191508051906020019080838360005b838110156105f25780820151818401526020810190506105d7565b50505050905090810190601f16801561061f5780820380516001836020036101000a031916815260200191505b509250505060405180910390f35b34801561063957600080fd5b50610642611bb5565b604051808215151515815260200191505060405180910390f35b6106fc600480360381019080803590602001908201803590602001908080601f0160208091040260200160405190810160405280939291908181526020018383808284378201915050505050509192919290803590602001908201803590602001908080601f0160208091040260200160405190810160405280939291908181526020018383808284378201915050505050509192919290505050611bcb565b005b600060019054906101000a900473ffffffffffffffffffffffffffffffffffffffff1673ffffffffffffffffffffffffffffffffffffffff163373ffffffffffffffffffffffffffffffffffffffff1614151561075a57600080fd5b6000809054906101000a900460ff16156000806101000a81548160ff0219169083151502179055507f0df7318cfb63f5e38621959a698ce3e05fcc5a5d50099327b2d1468556e1e03b6000809054906101000a900460ff16604051808215151515815260200191505060405180910390a1565b606080600060606000606080600060606000600360003373ffffffffffffffffffffffffffffffffffffffff1673ffffffffffffffffffffffffffffffffffffffff168152602001908152602001600020955085805490506040519080825280602002602001820160405280156108535781602001602082028038833980820191505090505b50945085805490506040519080825280602002602001820160405280156108895781602001602082028038833980820191505090505b50935060009250600090505b8580549050811015610ae15785818154811015156108af57fe5b906000526020600020906005020160000160009054906101000a900460ff1685828151811015156108dc57fe5b906020019060200201901515908115158152505085818154811015156108fe57fe5b906000526020600020906005020160020160009054906101000a900473ffffffffffffffffffffffffffffffffffffffff16848281518110151561093e57fe5b9060200190602002019073ffffffffffffffffffffffffffffffffffffffff16908173ffffffffffffffffffffffffffffffffffffffff1681525050858181548110151561098857fe5b90600052602060002090600502016003015483019250610a78610a6187838154811015156109b257fe5b90600052602060002090600502016004018054600181600116156101000203166002900480601f016020809104026020016040519081016040528092919081815260200182805460018160011615610100020316600290048015610a575780601f10610a2c57610100808354040283529160200191610a57565b820191906000526020600020905b815481529060010190602001808311610a3a57829003601f168201915b5050505050612557565b610a6a84612557565b61258590919063ffffffff16565b9150610ad2610abb6040805190810160405280600181526020017f2c00000000000000000000000000000000000000000000000000000000000000815250612557565b610ac484612557565b61258590919063ffffffff16565b91508080600101915050610895565b84848484995099509950995050505050505090919293565b610b016128c9565b610b096128c9565b60606000610c1c6001866040518082805190602001908083835b602083101515610b485780518252602082019150602081019050602083039250610b23565b6001836020036101000a03801982511681845116808217855250505050505090500191505090815260200160405180910390206002018054600181600116156101000203166002900480601f016020809104026020016040519081016040528092919081815260200182805460018160011615610100020316600290048015610c125780601f10610be757610100808354040283529160200191610c12565b820191906000526020600020905b815481529060010190602001808311610bf557829003601f168201915b5050505050612557565b9350610c5c6040805190810160405280600181526020017f2000000000000000000000000000000000000000000000000000000000000000815250612557565b92507fcea289db3c38a33e9c6c365141bdf93e7eca7882710e23dacaedd9301bd23daa6001610c94858761260790919063ffffffff16565b016040518082815260200191505060405180910390a16001610cbf848661260790919063ffffffff16565b01604051908082528060200260200182016040528015610cf357816020015b6060815260200190600190039081610cde5790505b509150600090505b8151811015610d4757610d1f610d1a848661267e90919063ffffffff16565b612698565b8282815181101515610d2d57fe5b906020019060200201819052508080600101915050610cfb565b7fb6d929cf1fe5fa86cd77b7dd8b4eff68efd24e69c6e0e8618a2ee1c6e64a4b82826000815181101515610d7757fe5b906020019060200201516040518080602001828103825283818151815260200191508051906020019080838360005b83811015610dc1578082015181840152602081019050610da6565b50505050905090810190601f168015610dee5780820380516001836020036101000a031916815260200191505b509250505060405180910390a17fc1f6b44d635a29f1051d306f9bf38ddef06214d4fb782a58b3f2f814cfcab1b1826001815181101515610e2b57fe5b906020019060200201516040518080602001828103825283818151815260200191508051906020019080838360005b83811015610e75578082015181840152602081019050610e5a565b50505050905090810190601f168015610ea25780820380516001836020036101000a031916815260200191505b509250505060405180910390a15050505050565b60606001826040518082805190602001908083835b602083101515610ef05780518252602082019150602081019050602083039250610ecb565b6001836020036101000a03801982511681845116808217855250505050505090500191505090815260200160405180910390206002018054600181600116156101000203166002900480601f016020809104026020016040519081016040528092919081815260200182805460018160011615610100020316600290048015610fba5780601f10610f8f57610100808354040283529160200191610fba565b820191906000526020600020905b815481529060010190602001808311610f9d57829003601f168201915b50505050509050919050565b6060806000606060006060806000606060008060009054906101000a900460ff16151515610ff357600080fd5b600360003373ffffffffffffffffffffffffffffffffffffffff1673ffffffffffffffffffffffffffffffffffffffff168152602001908152602001600020955085805490506040519080825280602002602001820160405280156110675781602001602082028038833980820191505090505b509450858054905060405190808252806020026020018201604052801561109d5781602001602082028038833980820191505090505b50935060009250600090505b85805490508110156112f55785818154811015156110c357fe5b906000526020600020906005020160000160009054906101000a900460ff1685828151811015156110f057fe5b9060200190602002019015159081151581525050858181548110151561111257fe5b906000526020600020906005020160020160009054906101000a900473ffffffffffffffffffffffffffffffffffffffff16848281518110151561115257fe5b9060200190602002019073ffffffffffffffffffffffffffffffffffffffff16908173ffffffffffffffffffffffffffffffffffffffff1681525050858181548110151561119c57fe5b9060005260206000209060050201600301548301925061128c61127587838154811015156111c657fe5b90600052602060002090600502016004018054600181600116156101000203166002900480601f01602080910402602001604051908101604052809291908181526020018280546001816001161561010002031660029004801561126b5780601f106112405761010080835404028352916020019161126b565b820191906000526020600020905b81548152906001019060200180831161124e57829003601f168201915b5050505050612557565b61127e84612557565b61258590919063ffffffff16565b91506112e66112cf6040805190810160405280600181526020017f2c00000000000000000000000000000000000000000000000000000000000000815250612557565b6112d884612557565b61258590919063ffffffff16565b915080806001019150506110a9565b3373ffffffffffffffffffffffffffffffffffffffff166108fc849081150290604051600060405180830381858888f1935050505015801561133b573d6000803e3d6000fd5b50600360003373ffffffffffffffffffffffffffffffffffffffff1673ffffffffffffffffffffffffffffffffffffffff168152602001908152602001600020600061138791906128e3565b84848484995099509950995050505050505090919293565b60606000809054906101000a900460ff161515156113bc57600080fd5b82606081905060008151141515156113d357600080fd5b60006001866040518082805190602001908083835b60208310151561140d57805182526020820191506020810190506020830392506113e8565b6001836020036101000a038019825116818451168082178552505050505050905001915050908152602001604051809103902060000160009054906101000a900473ffffffffffffffffffffffffffffffffffffffff1673ffffffffffffffffffffffffffffffffffffffff161415611852576060604051908101604052803373ffffffffffffffffffffffffffffffffffffffff168152602001868152602001858152506001866040518082805190602001908083835b6020831015156114ea57805182526020820191506020810190506020830392506114c5565b6001836020036101000a038019825116818451168082178552505050505050905001915050908152602001604051809103902060008201518160000160006101000a81548173ffffffffffffffffffffffffffffffffffffffff021916908373ffffffffffffffffffffffffffffffffffffffff1602179055506020820151816001019080519060200190611580929190612907565b50604082015181600201908051906020019061159d929190612907565b509050506115f96115ad86612557565b6115eb6040805190810160405280600181526020017f2000000000000000000000000000000000000000000000000000000000000000815250612557565b61258590919063ffffffff16565b92506116f561160784612557565b6116e7600260003373ffffffffffffffffffffffffffffffffffffffff1673ffffffffffffffffffffffffffffffffffffffff1681526020019081526020016000208054600181600116156101000203166002900480601f0160208091040260200160405190810160405280929190818152602001828054600181600116156101000203166002900480156116dd5780601f106116b2576101008083540402835291602001916116dd565b820191906000526020600020905b8154815290600101906020018083116116c057829003601f168201915b5050505050612557565b61258590919063ffffffff16565b600260003373ffffffffffffffffffffffffffffffffffffffff1673ffffffffffffffffffffffffffffffffffffffff1681526020019081526020016000209080519060200190611747929190612987565b507fbee898fd9a0ce1cf7819a71a023f4dcd8c3b8882d69e23409cbc709086385f368585604051808060200180602001838103835285818151815260200191508051906020019080838360005b838110156117af578082015181840152602081019050611794565b50505050905090810190601f1680156117dc5780820380516001836020036101000a031916815260200191505b50838103825284818151815260200191508051906020019080838360005b838110156118155780820151818401526020810190506117fa565b50505050905090810190601f1680156118425780820380516001836020036101000a031916815260200191505b5094505050505060405180910390a15b5050505050565b6000809054906101000a900460ff1615151561187457600080fd5b823373ffffffffffffffffffffffffffffffffffffffff166001826040518082805190602001908083835b6020831015156118c4578051825260208201915060208101905060208303925061189f565b6001836020036101000a038019825116818451168082178552505050505050905001915050908152602001604051809103902060000160009054906101000a900473ffffffffffffffffffffffffffffffffffffffff1673ffffffffffffffffffffffffffffffffffffffff1614151561193d57600080fd5b816001856040518082805190602001908083835b6020831015156119765780518252602082019150602081019050602083039250611951565b6001836020036101000a038019825116818451168082178552505050505050905001915050908152602001604051809103902060030160008573ffffffffffffffffffffffffffffffffffffffff1673ffffffffffffffffffffffffffffffffffffffff16815260200190815260200160002060006101000a81548160ff0219169083151502179055507f718fac2b2c4eb816da609566da47952fe927a2af736870a471eefdd7b0f161ea848460405180806020018373ffffffffffffffffffffffffffffffffffffffff1673ffffffffffffffffffffffffffffffffffffffff168152602001828103825284818151815260200191508051906020019080838360005b83811015611a95578082015181840152602081019050611a7a565b50505050905090810190601f168015611ac25780820380516001836020036101000a031916815260200191505b50935050505060405180910390a150505050565b6060600260003373ffffffffffffffffffffffffffffffffffffffff1673ffffffffffffffffffffffffffffffffffffffff1681526020019081526020016000208054600181600116156101000203166002900480601f016020809104026020016040519081016040528092919081815260200182805460018160011615610100020316600290048015611bab5780601f10611b8057610100808354040283529160200191611bab565b820191906000526020600020905b815481529060010190602001808311611b8e57829003601f168201915b5050505050905090565b60008060009054906101000a900460ff16905090565b6000611bd56128c9565b611bdd6128c9565b606060008060008060009054906101000a900460ff16151515611bff57600080fd5b6001896040518082805190602001908083835b602083101515611c375780518252602082019150602081019050602083039250611c12565b6001836020036101000a038019825116818451168082178552505050505050905001915050908152602001604051809103902096507f6acf0d4da33106edf45844ed2d57906a70ff4a5884426a93afeb78eb942523da60405160405180910390a17fd0df827659790fcd56f02362f2748e46f75c7c5ecab344799d45d2c9aae155df8760030160003373ffffffffffffffffffffffffffffffffffffffff1673ffffffffffffffffffffffffffffffffffffffff16815260200190815260200160002060009054906101000a900460ff16604051808215151515815260200191505060405180910390a18660030160003373ffffffffffffffffffffffffffffffffffffffff1673ffffffffffffffffffffffffffffffffffffffff16815260200190815260200160002060009054906101000a900460ff161561254c57600360008860000160009054906101000a900473ffffffffffffffffffffffffffffffffffffffff1673ffffffffffffffffffffffffffffffffffffffff1673ffffffffffffffffffffffffffffffffffffffff16815260200190815260200160002060a060405190810160405280600115158152602001896001018054600181600116156101000203166002900480601f016020809104026020016040519081016040528092919081815260200182805460018160011615610100020316600290048015611e855780601f10611e5a57610100808354040283529160200191611e85565b820191906000526020600020905b815481529060010190602001808311611e6857829003601f168201915b505050505081526020013373ffffffffffffffffffffffffffffffffffffffff1681526020013481526020018a8152509080600181540180825580915050906001820390600052602060002090600502016000909192909190915060008201518160000160006101000a81548160ff0219169083151502179055506020820151816001019080519060200190611f1c929190612907565b5060408201518160020160006101000a81548173ffffffffffffffffffffffffffffffffffffffff021916908373ffffffffffffffffffffffffffffffffffffffff160217905550606082015181600301556080820151816004019080519060200190611f8a929190612907565b505050507fe67cf504dbe5723ab143d19d0d13d5cc8dfadb97bbefe091aa15fa384a1bb356876001018860000160009054906101000a900473ffffffffffffffffffffffffffffffffffffffff1660405180806020018373ffffffffffffffffffffffffffffffffffffffff1673ffffffffffffffffffffffffffffffffffffffff1681526020018281038252848181546001816001161561010002031660029004815260200191508054600181600116156101000203166002900480156120935780601f1061206857610100808354040283529160200191612093565b820191906000526020600020905b81548152906001019060200180831161207657829003601f168201915b5050935050505060405180910390a1612147876002018054600181600116156101000203166002900480601f01602080910402602001604051908101604052809291908181526020018280546001816001161561010002031660029004801561213d5780601f106121125761010080835404028352916020019161213d565b820191906000526020600020905b81548152906001019060200180831161212057829003601f168201915b5050505050612557565b95506121876040805190810160405280600181526020017f2000000000000000000000000000000000000000000000000000000000000000815250612557565b9450600161219e868861260790919063ffffffff16565b016040519080825280602002602001820160405280156121d257816020015b60608152602001906001900390816121bd5790505b509350600092505b8351831015612226576121fe6121f9868861267e90919063ffffffff16565b612698565b848481518110151561220c57fe5b9060200190602002018190525082806001019350506121da565b600091505b8351821015612513576001848381518110151561224457fe5b906020019060200201516040518082805190602001908083835b602083101515612283578051825260208201915060208101905060208303925061225e565b6001836020036101000a03801982511681845116808217855250505050505090500191505090815260200160405180910390209050600360008260000160009054906101000a900473ffffffffffffffffffffffffffffffffffffffff1673ffffffffffffffffffffffffffffffffffffffff1673ffffffffffffffffffffffffffffffffffffffff16815260200190815260200160002060a060405190810160405280600015158152602001836001018054600181600116156101000203166002900480601f0160208091040260200160405190810160405280929190818152602001828054600181600116156101000203166002900480156123c85780601f1061239d576101008083540402835291602001916123c8565b820191906000526020600020905b8154815290600101906020018083116123ab57829003601f168201915b505050505081526020018960000160009054906101000a900473ffffffffffffffffffffffffffffffffffffffff1673ffffffffffffffffffffffffffffffffffffffff1681526020016000815260200160206040519081016040528060008152508152509080600181540180825580915050906001820390600052602060002090600502016000909192909190915060008201518160000160006101000a81548160ff0219169083151502179055506020820151816001019080519060200190612494929190612907565b5060408201518160020160006101000a81548173ffffffffffffffffffffffffffffffffffffffff021916908373ffffffffffffffffffffffffffffffffffffffff160217905550606082015181600301556080820151816004019080519060200190612502929190612907565b50505050818060010192505061222b565b7f2c5c836884c5046594243609b073fc2c2e126307f725d15c77b95ef9dc101e5b84516040518082815260200191505060405180910390a15b505050505050505050565b61255f6128c9565b600060208301905060408051908101604052808451815260200182815250915050919050565b606080600083600001518560000151016040519080825280601f01601f1916602001820160405280156125c75781602001602082028038833980820191505090505b5091506020820190506125e381866020015187600001516126fa565b6125fc85600001518201856020015186600001516126fa565b819250505092915050565b600080826000015161262b8560000151866020015186600001518760200151612745565b0190505b836000015184602001510181111515612677578180600101925050826000015161266f856020015183038660000151038386600001518760200151612745565b01905061262f565b5092915050565b6126866128c9565b61269183838361282b565b5092915050565b606080600083600001516040519080825280601f01601f1916602001820160405280156126d45781602001602082028038833980820191505090505b5091506020820190506126f081856020015186600001516126fa565b8192505050919050565b60005b60208210151561272257825184526020840193506020830192506020820391506126fd565b6001826020036101000a0390508019835116818551168181178652505050505050565b60008060008060008060008060008b97508c8b1115156128155760208b1115156127cf5760018b60200360080260020a03196001029550858a511694508a8d8d010393508588511692505b846000191683600019161415156127c75783881015156127b4578c8c01985061281b565b8780600101985050858851169250612790565b87985061281b565b8a8a209150600096505b8a8d0387111515612814578a882090508060001916826000191614156128015787985061281b565b60018801975086806001019750506127d9565b5b8c8c0198505b5050505050505050949350505050565b6128336128c9565b60006128518560000151866020015186600001518760200151612745565b905084602001518360200181815250508460200151810383600001818152505084600001518560200151018114156128935760008560000181815250506128be565b8360000151836000015101856000018181510391508181525050836000015181018560200181815250505b829150509392505050565b604080519081016040528060008152602001600081525090565b50805460008255600502906000526020600020908101906129049190612a07565b50565b828054600181600116156101000203166002900490600052602060002090601f016020900481019282601f1061294857805160ff1916838001178555612976565b82800160010185558215612976579182015b8281111561297557825182559160200191906001019061295a565b5b5090506129839190612a89565b5090565b828054600181600116156101000203166002900490600052602060002090601f016020900481019282601f106129c857805160ff19168380011785556129f6565b828001600101855582156129f6579182015b828111156129f55782518255916020019190600101906129da565b5b509050612a039190612a89565b5090565b612a8691905b80821115612a8257600080820160006101000a81549060ff0219169055600182016000612a3a9190612aae565b6002820160006101000a81549073ffffffffffffffffffffffffffffffffffffffff02191690556003820160009055600482016000612a799190612aae565b50600501612a0d565b5090565b90565b612aab91905b80821115612aa7576000816000905550600101612a8f565b5090565b90565b50805460018160011615610100020316600290046000825580601f10612ad45750612af3565b601f016020900490600052602060002090810190612af29190612a89565b5b505600a165627a7a72305820a556f4ee41e701ba2a38bfec3f750349282bfa322156008eae966d823f1883570029",
  "source": "pragma solidity ^0.4.23;\r\n// Use https://github.com/Arachnid/solidity-stringutils for string splitting\r\n// Note that I technically don't need this.. if I turn Resource.parts into an array\r\n\r\n// Change this later to point to downloaded local file\r\nimport \"./strings.sol\";\r\n\r\n\r\n// TODO: \r\n// 0) Create a function that resets EVERYTHING\r\n//  i) Every update to the contract state should have a corresponding event tied to it\r\n//  ii) Add openzeppellin split amount integration (do by saving payees in an array first)\r\n// iii) Add ipfs\r\n    // iii-a) https://github.com/ipfs/js-ipfs/tree/master/examples, https://github.com/ipfs/js-ipfs/tree/master/examples/ipfs-101 \r\n// iv) Add check that part (make this a modifier) and subparts (check in-function) exist, for notify\r\n\r\n// Stretch Goals\r\n\r\n// Split up payments for multiple people if more than one part specified.\r\n\r\n\r\n\r\n// In progress: Switch whitelist users to whitelist user. Ensure that the tests are also changed\r\n\r\ncontract SupplyChainEP {\r\n    using strings for *;\r\n\r\n    bool private stopped = false;\r\n    \r\n    /* set owner */\r\n    address owner;\r\n\r\n    /* getting information from resource name */\r\n    mapping (string => Resource) resourceInfo;\r\n\r\n    struct Resource {\r\n        address source;\r\n        string name; // Note that IRL, these could be EPCs\r\n        string parts; // space separated names of parts\r\n        mapping (address => bool) whitelistedUsers;\r\n    }\r\n\r\n    mapping (address => string) resources;\r\n\r\n    mapping (address => Request[]) requests;\r\n\r\n    struct Request {\r\n        bool directRequest; // If it's just a warning, then this is false\r\n        string resourceName;\r\n        address requester;\r\n        uint reward;\r\n        string ipfsHash;\r\n    }\r\n\r\n    /* Events */\r\n    event requestSent(string resourceName, address _address);\r\n    event warningSent(uint numberOfWarnings);\r\n    event userWhitelisted(string part, address whitelisteduser);\r\n    event resourceAdded(string part, string subparts);\r\n    event debugString(string debug);\r\n    event debugString2(string debug);\r\n    event debugInt(uint debug);\r\n    event stoppedChange(bool status);\r\n\r\n    event gothere();\r\n    event debugBool(bool boolean);\r\n\r\n    /* Modifiers */\r\n    modifier verifyCaller (address _address) {require (msg.sender == _address); _;}\r\n    modifier isSource (string part) {require (resourceInfo[part].source == msg.sender); _;}\r\n    modifier isOwner () {require(msg.sender == owner); _;}\r\n    modifier notEmpty (string _string) {bytes memory stringTest = bytes(_string); require (stringTest.length != 0); _;}\r\n    modifier stopInEmergency {require(!stopped); _;}\r\n\r\n    constructor() public {\r\n        owner = msg.sender;\r\n    }\r\n\r\n    function toggleContractActive() isOwner public {\r\n        stopped = !stopped;\r\n        emit stoppedChange(stopped);\r\n    }\r\n\r\n    // When notifying people, you also send warnings to one level further down\r\n    function notify(string parts, string _ipfsHash)\r\n        payable\r\n        stopInEmergency\r\n        public\r\n    {   \r\n        Resource storage r = resourceInfo[parts];\r\n        emit gothere();\r\n        emit debugBool(r.whitelistedUsers[msg.sender]);\r\n\r\n        if(r.whitelistedUsers[msg.sender]) {\r\n            requests[r.source].push(Request({\r\n                directRequest: true,\r\n                resourceName: r.name,\r\n                requester: msg.sender,\r\n                reward: msg.value,\r\n                ipfsHash: _ipfsHash\r\n            }));\r\n            emit requestSent(r.name, r.source);\r\n            // Push warnings to each of the subparts\r\n            var s = r.parts.toSlice();\r\n            var delim = \" \".toSlice();\r\n            var subparts = new string[](s.count(delim) + 1);\r\n            for(uint j = 0; j < subparts.length; j++) {\r\n                subparts[j] = s.split(delim).toString();\r\n            }\r\n            for (uint i = 0; i < subparts.length; i++) {\r\n                Resource storage r2 = resourceInfo[subparts[i]];\r\n                requests[r2.source].push(Request({\r\n                    directRequest: false,\r\n                    resourceName: r2.name,\r\n                    requester: r.source, // We give the name of the manufacturer that is one up, so as to protect name of user of part higher up\r\n                    reward: 0,\r\n                    ipfsHash: \"\"\r\n                }));\r\n            }\r\n            emit warningSent(subparts.length);\r\n        }\r\n    }\r\n\r\n    // Add a resource to the blockchain with your address\r\n    // part names should be space separated\r\n    function addResource(string _resourceName, string _partNames)\r\n        public\r\n        stopInEmergency\r\n        notEmpty(_resourceName)\r\n    {\r\n        // First see if resource is empty\r\n        if (resourceInfo[_resourceName].source == 0) {\r\n            resourceInfo[_resourceName] = Resource({source: msg.sender, name: _resourceName, parts: _partNames});\r\n            \r\n            // Then add to owner's string of resources\r\n            var s = \" \".toSlice().concat(_resourceName.toSlice());\r\n            resources[msg.sender] = resources[msg.sender].toSlice().concat(s.toSlice());\r\n\r\n            // Emit event\r\n            emit resourceAdded(_resourceName, _partNames);\r\n        }\r\n    }\r\n\r\n    function myResources()\r\n        public\r\n        view\r\n        returns(string)\r\n    {\r\n        return resources[msg.sender];\r\n    }\r\n    \r\n    // This is for resource manufacturers to whitelist companies in order to allow them to send\r\n    // errors. Set state to 'true' if you want to whitelist users, and 'false' if you want\r\n    // to remove them from the whitelist\r\n    function whitelistUser(string part, address _whitelistedUser, bool state)\r\n        public\r\n        stopInEmergency\r\n        isSource(part)\r\n    {\r\n        // Save the reference to the mapping inside the resource struct\r\n        resourceInfo[part].whitelistedUsers[_whitelistedUser] = state;\r\n        emit userWhitelisted(part, _whitelistedUser);\r\n    }\r\n\r\n\r\n    // function whitelistUser(string part, address _whitelistedUsers, bool state)\r\n    //     public\r\n    //     isSource(part)\r\n    // {\r\n    //     // Save the reference to the mapping inside the resource struct\r\n    //     mapping (address => bool) map = resourceInfo[part].whitelistedUsers;\r\n\r\n    //     // Iterate through the given whitelisted users and save the info in the resource\r\n    //     for (uint i = 0; i < _whitelistedUsers.length; i++) {\r\n    //         map[_whitelistedUsers[i]] = state;\r\n    //     }\r\n    // }\r\n\r\n\r\n\r\n    // This is for manufacturers to receive their requests and receive their payments\r\n    // This would eventually delete all the requests by the end of the transaction\r\n    function getRequests()\r\n        public\r\n        stopInEmergency\r\n        returns (bool[], address[], uint, string)\r\n    {\r\n        Request[] storage r = requests[msg.sender];\r\n        bool[] memory isWarning = new bool[](r.length);\r\n        address[] memory notifiers = new address[](r.length);\r\n        uint payment = 0;\r\n\r\n        string memory ipfs_hash;\r\n        \r\n        for(uint i = 0; i < r.length; i++) {\r\n            isWarning[i] = r[i].directRequest;\r\n            notifiers[i] = r[i].requester;\r\n            payment = payment + r[i].reward;\r\n            ipfs_hash = ipfs_hash.toSlice().concat(r[i].ipfsHash.toSlice());\r\n            ipfs_hash = ipfs_hash.toSlice().concat(\",\".toSlice());\r\n        }\r\n        \r\n        msg.sender.transfer(payment);\r\n        delete requests[msg.sender];\r\n        return (isWarning, notifiers, payment, ipfs_hash);\r\n    }\r\n\r\n    function seeRequests()\r\n        view\r\n        public\r\n        returns (bool[], address[], uint, string)\r\n    {\r\n        Request[] storage r = requests[msg.sender];\r\n        bool[] memory isWarning = new bool[](r.length);\r\n        address[] memory notifiers = new address[](r.length);\r\n        uint payment = 0;\r\n\r\n        string memory ipfs_hash;\r\n\r\n        for(uint i = 0; i < r.length; i++) {\r\n            isWarning[i] = r[i].directRequest;\r\n            notifiers[i] = r[i].requester;\r\n            payment = payment + r[i].reward;\r\n            ipfs_hash = ipfs_hash.toSlice().concat(r[i].ipfsHash.toSlice());\r\n            ipfs_hash = ipfs_hash.toSlice().concat(\",\".toSlice());\r\n        }\r\n        return (isWarning, notifiers, payment, ipfs_hash);\r\n    }\r\n\r\n    function checkEmergencyStop()\r\n        public\r\n        view\r\n        returns (bool)\r\n    {\r\n        return stopped;\r\n    }\r\n\r\n    // For Debugging\r\n    function getSubparts(string part)\r\n        public\r\n        returns (string)\r\n    {\r\n        return resourceInfo[part].parts;\r\n    }\r\n\r\n    // For Debugging. To be tested on a part that has two subparts\r\n    function splitSubparts(string part)\r\n        public\r\n    {\r\n        var s = resourceInfo[part].parts.toSlice();\r\n        var delim = \" \".toSlice();\r\n        emit debugInt(s.count(delim) + 1);\r\n        var subparts = new string[](s.count(delim) + 1);\r\n        for(uint i = 0; i < subparts.length; i++) {\r\n            subparts[i] = s.split(delim).toString();\r\n        }\r\n        emit debugString(subparts[0]);\r\n        emit debugString2(subparts[1]);\r\n    }\r\n}",
  "sourcePath": "C:\\Users\\alexm\\OneDrive\\Desktop\\fin\\contracts\\SupplyChainEP.sol",
  "compiler": {
    "name": "solc",
    "version": "0.4.24+commit.e67f0147.Emscripten.clang"
  },
  "schemaVersion": "2.0.0",
  "updatedAt": "2018-08-19T10:23:41.532Z"
}