{
  "contractName": "SupplyChainEP",
  "abi": [
    {
      "inputs": [],
      "payable": false,
      "stateMutability": "nonpayable",
      "type": "constructor"
    },
    {
      "anonymous": false,
      "inputs": [
        {
          "indexed": false,
          "name": "resourceName",
          "type": "string"
        },
        {
          "indexed": false,
          "name": "_address",
          "type": "address"
        }
      ],
      "name": "requestSent",
      "type": "event"
    },
    {
      "anonymous": false,
      "inputs": [
        {
          "indexed": false,
          "name": "numberOfWarnings",
          "type": "uint256"
        }
      ],
      "name": "warningSent",
      "type": "event"
    },
    {
      "anonymous": false,
      "inputs": [
        {
          "indexed": false,
          "name": "part",
          "type": "string"
        },
        {
          "indexed": false,
          "name": "whitelisteduser",
          "type": "address"
        }
      ],
      "name": "userWhitelisted",
      "type": "event"
    },
    {
      "anonymous": false,
      "inputs": [
        {
          "indexed": false,
          "name": "part",
          "type": "string"
        },
        {
          "indexed": false,
          "name": "subparts",
          "type": "string"
        }
      ],
      "name": "resourceAdded",
      "type": "event"
    },
    {
      "anonymous": false,
      "inputs": [
        {
          "indexed": false,
          "name": "debug",
          "type": "string"
        }
      ],
      "name": "debugString",
      "type": "event"
    },
    {
      "anonymous": false,
      "inputs": [
        {
          "indexed": false,
          "name": "debug",
          "type": "string"
        }
      ],
      "name": "debugString2",
      "type": "event"
    },
    {
      "anonymous": false,
      "inputs": [
        {
          "indexed": false,
          "name": "debug",
          "type": "uint256"
        }
      ],
      "name": "debugInt",
      "type": "event"
    },
    {
      "anonymous": false,
      "inputs": [],
      "name": "gothere",
      "type": "event"
    },
    {
      "anonymous": false,
      "inputs": [
        {
          "indexed": false,
          "name": "boolean",
          "type": "bool"
        }
      ],
      "name": "debugBool",
      "type": "event"
    },
    {
      "constant": false,
      "inputs": [
        {
          "name": "parts",
          "type": "string"
        },
        {
          "name": "_ipfsHash",
          "type": "string"
        }
      ],
      "name": "notify",
      "outputs": [],
      "payable": true,
      "stateMutability": "payable",
      "type": "function"
    },
    {
      "constant": false,
      "inputs": [
        {
          "name": "_resourceName",
          "type": "string"
        },
        {
          "name": "_partNames",
          "type": "string"
        }
      ],
      "name": "addResource",
      "outputs": [],
      "payable": false,
      "stateMutability": "nonpayable",
      "type": "function"
    },
    {
      "constant": true,
      "inputs": [],
      "name": "myResources",
      "outputs": [
        {
          "name": "",
          "type": "string"
        }
      ],
      "payable": false,
      "stateMutability": "view",
      "type": "function"
    },
    {
      "constant": false,
      "inputs": [
        {
          "name": "part",
          "type": "string"
        },
        {
          "name": "_whitelistedUser",
          "type": "address"
        },
        {
          "name": "state",
          "type": "bool"
        }
      ],
      "name": "whitelistUser",
      "outputs": [],
      "payable": false,
      "stateMutability": "nonpayable",
      "type": "function"
    },
    {
      "constant": false,
      "inputs": [],
      "name": "getRequests",
      "outputs": [
        {
          "name": "",
          "type": "bool[]"
        },
        {
          "name": "",
          "type": "address[]"
        },
        {
          "name": "",
          "type": "uint256"
        },
        {
          "name": "",
          "type": "string"
        }
      ],
      "payable": false,
      "stateMutability": "nonpayable",
      "type": "function"
    },
    {
      "constant": true,
      "inputs": [],
      "name": "seeRequests",
      "outputs": [
        {
          "name": "",
          "type": "bool[]"
        },
        {
          "name": "",
          "type": "address[]"
        },
        {
          "name": "",
          "type": "uint256"
        },
        {
          "name": "",
          "type": "string"
        }
      ],
      "payable": false,
      "stateMutability": "view",
      "type": "function"
    },
    {
      "constant": false,
      "inputs": [
        {
          "name": "part",
          "type": "string"
        }
      ],
      "name": "getSubparts",
      "outputs": [
        {
          "name": "",
          "type": "string"
        }
      ],
      "payable": false,
      "stateMutability": "nonpayable",
      "type": "function"
    },
    {
      "constant": false,
      "inputs": [
        {
          "name": "part",
          "type": "string"
        }
      ],
      "name": "splitSubparts",
      "outputs": [],
      "payable": false,
      "stateMutability": "nonpayable",
      "type": "function"
    }
  ],
  "bytecode": "0x608060405234801561001057600080fd5b50336000806101000a81548173ffffffffffffffffffffffffffffffffffffffff021916908373ffffffffffffffffffffffffffffffffffffffff160217905550612975806100606000396000f30060806040526004361061008e576000357c0100000000000000000000000000000000000000000000000000000000900463ffffffff1680632532e6ac146100935780637d086bea146101ba57806387259b09146102235780638813ce12146103055780638d2250301461042c57806395a902f5146104db5780639c6cf53e14610570578063b35c632014610600575b600080fd5b34801561009f57600080fd5b506100a86106a2565b60405180806020018060200185815260200180602001848103845288818151815260200191508051906020019060200280838360005b838110156100f95780820151818401526020810190506100de565b50505050905001848103835287818151815260200191508051906020019060200280838360005b8381101561013b578082015181840152602081019050610120565b50505050905001848103825285818151815260200191508051906020019080838360005b8381101561017a57808201518184015260208101905061015f565b50505050905090810190601f1680156101a75780820380516001836020036101000a031916815260200191505b5097505050505050505060405180910390f35b3480156101c657600080fd5b50610221600480360381019080803590602001908201803590602001908080601f01602080910402602001604051908101604052809392919081815260200183838082843782019150505050505091929192905050506109ce565b005b34801561022f57600080fd5b5061028a600480360381019080803590602001908201803590602001908080601f0160208091040260200160405190810160405280939291908181526020018383808284378201915050505050509192919290505050610d8b565b6040518080602001828103825283818151815260200191508051906020019080838360005b838110156102ca5780820151818401526020810190506102af565b50505050905090810190601f1680156102f75780820380516001836020036101000a031916815260200191505b509250505060405180910390f35b34801561031157600080fd5b5061031a610e9b565b60405180806020018060200185815260200180602001848103845288818151815260200191508051906020019060200280838360005b8381101561036b578082015181840152602081019050610350565b50505050905001848103835287818151815260200191508051906020019060200280838360005b838110156103ad578082015181840152602081019050610392565b50505050905001848103825285818151815260200191508051906020019080838360005b838110156103ec5780820151818401526020810190506103d1565b50505050905090810190601f1680156104195780820380516001836020036101000a031916815260200191505b5097505050505050505060405180910390f35b34801561043857600080fd5b506104d9600480360381019080803590602001908201803590602001908080601f0160208091040260200160405190810160405280939291908181526020018383808284378201915050505050509192919290803590602001908201803590602001908080601f0160208091040260200160405190810160405280939291908181526020018383808284378201915050505050509192919290505050611259565b005b3480156104e757600080fd5b5061056e600480360381019080803590602001908201803590602001908080601f0160208091040260200160405190810160405280939291908181526020018383808284378201915050505050509192919290803573ffffffffffffffffffffffffffffffffffffffff1690602001909291908035151590602001909291905050506116f8565b005b34801561057c57600080fd5b5061058561195a565b6040518080602001828103825283818151815260200191508051906020019080838360005b838110156105c55780820151818401526020810190506105aa565b50505050905090810190601f1680156105f25780820380516001836020036101000a031916815260200191505b509250505060405180910390f35b6106a0600480360381019080803590602001908201803590602001908080601f0160208091040260200160405190810160405280939291908181526020018383808284378201915050505050509192919290803590602001908201803590602001908080601f0160208091040260200160405190810160405280939291908181526020018383808284378201915050505050509192919290505050611a39565b005b606080600060606000606080600060606000600360003373ffffffffffffffffffffffffffffffffffffffff1673ffffffffffffffffffffffffffffffffffffffff168152602001908152602001600020955085805490506040519080825280602002602001820160405280156107285781602001602082028038833980820191505090505b509450858054905060405190808252806020026020018201604052801561075e5781602001602082028038833980820191505090505b50935060009250600090505b85805490508110156109b657858181548110151561078457fe5b906000526020600020906005020160000160009054906101000a900460ff1685828151811015156107b157fe5b906020019060200201901515908115158152505085818154811015156107d357fe5b906000526020600020906005020160020160009054906101000a900473ffffffffffffffffffffffffffffffffffffffff16848281518110151561081357fe5b9060200190602002019073ffffffffffffffffffffffffffffffffffffffff16908173ffffffffffffffffffffffffffffffffffffffff1681525050858181548110151561085d57fe5b9060005260206000209060050201600301548301925061094d610936878381548110151561088757fe5b90600052602060002090600502016004018054600181600116156101000203166002900480601f01602080910402602001604051908101604052809291908181526020018280546001816001161561010002031660029004801561092c5780601f106109015761010080835404028352916020019161092c565b820191906000526020600020905b81548152906001019060200180831161090f57829003601f168201915b50505050506123aa565b61093f846123aa565b6123d890919063ffffffff16565b91506109a76109906040805190810160405280600181526020017f2c000000000000000000000000000000000000000000000000000000000000008152506123aa565b610999846123aa565b6123d890919063ffffffff16565b9150808060010191505061076a565b84848484995099509950995050505050505090919293565b6109d661271c565b6109de61271c565b60606000610af16001866040518082805190602001908083835b602083101515610a1d57805182526020820191506020810190506020830392506109f8565b6001836020036101000a03801982511681845116808217855250505050505090500191505090815260200160405180910390206002018054600181600116156101000203166002900480601f016020809104026020016040519081016040528092919081815260200182805460018160011615610100020316600290048015610ae75780601f10610abc57610100808354040283529160200191610ae7565b820191906000526020600020905b815481529060010190602001808311610aca57829003601f168201915b50505050506123aa565b9350610b316040805190810160405280600181526020017f20000000000000000000000000000000000000000000000000000000000000008152506123aa565b92507fcea289db3c38a33e9c6c365141bdf93e7eca7882710e23dacaedd9301bd23daa6001610b69858761245a90919063ffffffff16565b016040518082815260200191505060405180910390a16001610b94848661245a90919063ffffffff16565b01604051908082528060200260200182016040528015610bc857816020015b6060815260200190600190039081610bb35790505b509150600090505b8151811015610c1c57610bf4610bef84866124d190919063ffffffff16565b6124eb565b8282815181101515610c0257fe5b906020019060200201819052508080600101915050610bd0565b7fb6d929cf1fe5fa86cd77b7dd8b4eff68efd24e69c6e0e8618a2ee1c6e64a4b82826000815181101515610c4c57fe5b906020019060200201516040518080602001828103825283818151815260200191508051906020019080838360005b83811015610c96578082015181840152602081019050610c7b565b50505050905090810190601f168015610cc35780820380516001836020036101000a031916815260200191505b509250505060405180910390a17fc1f6b44d635a29f1051d306f9bf38ddef06214d4fb782a58b3f2f814cfcab1b1826001815181101515610d0057fe5b906020019060200201516040518080602001828103825283818151815260200191508051906020019080838360005b83811015610d4a578082015181840152602081019050610d2f565b50505050905090810190601f168015610d775780820380516001836020036101000a031916815260200191505b509250505060405180910390a15050505050565b60606001826040518082805190602001908083835b602083101515610dc55780518252602082019150602081019050602083039250610da0565b6001836020036101000a03801982511681845116808217855250505050505090500191505090815260200160405180910390206002018054600181600116156101000203166002900480601f016020809104026020016040519081016040528092919081815260200182805460018160011615610100020316600290048015610e8f5780601f10610e6457610100808354040283529160200191610e8f565b820191906000526020600020905b815481529060010190602001808311610e7257829003601f168201915b50505050509050919050565b606080600060606000606080600060606000600360003373ffffffffffffffffffffffffffffffffffffffff1673ffffffffffffffffffffffffffffffffffffffff16815260200190815260200160002095508580549050604051908082528060200260200182016040528015610f215781602001602082028038833980820191505090505b5094508580549050604051908082528060200260200182016040528015610f575781602001602082028038833980820191505090505b50935060009250600090505b85805490508110156111af578581815481101515610f7d57fe5b906000526020600020906005020160000160009054906101000a900460ff168582815181101515610faa57fe5b90602001906020020190151590811515815250508581815481101515610fcc57fe5b906000526020600020906005020160020160009054906101000a900473ffffffffffffffffffffffffffffffffffffffff16848281518110151561100c57fe5b9060200190602002019073ffffffffffffffffffffffffffffffffffffffff16908173ffffffffffffffffffffffffffffffffffffffff1681525050858181548110151561105657fe5b9060005260206000209060050201600301548301925061114661112f878381548110151561108057fe5b90600052602060002090600502016004018054600181600116156101000203166002900480601f0160208091040260200160405190810160405280929190818152602001828054600181600116156101000203166002900480156111255780601f106110fa57610100808354040283529160200191611125565b820191906000526020600020905b81548152906001019060200180831161110857829003601f168201915b50505050506123aa565b611138846123aa565b6123d890919063ffffffff16565b91506111a06111896040805190810160405280600181526020017f2c000000000000000000000000000000000000000000000000000000000000008152506123aa565b611192846123aa565b6123d890919063ffffffff16565b91508080600101915050610f63565b3373ffffffffffffffffffffffffffffffffffffffff166108fc849081150290604051600060405180830381858888f193505050501580156111f5573d6000803e3d6000fd5b50600360003373ffffffffffffffffffffffffffffffffffffffff1673ffffffffffffffffffffffffffffffffffffffff16815260200190815260200160002060006112419190612736565b84848484995099509950995050505050505090919293565b6060826060819050600081511415151561127257600080fd5b60006001866040518082805190602001908083835b6020831015156112ac5780518252602082019150602081019050602083039250611287565b6001836020036101000a038019825116818451168082178552505050505050905001915050908152602001604051809103902060000160009054906101000a900473ffffffffffffffffffffffffffffffffffffffff1673ffffffffffffffffffffffffffffffffffffffff1614156116f1576060604051908101604052803373ffffffffffffffffffffffffffffffffffffffff168152602001868152602001858152506001866040518082805190602001908083835b6020831015156113895780518252602082019150602081019050602083039250611364565b6001836020036101000a038019825116818451168082178552505050505050905001915050908152602001604051809103902060008201518160000160006101000a81548173ffffffffffffffffffffffffffffffffffffffff021916908373ffffffffffffffffffffffffffffffffffffffff160217905550602082015181600101908051906020019061141f92919061275a565b50604082015181600201908051906020019061143c92919061275a565b5090505061149861144c866123aa565b61148a6040805190810160405280600181526020017f20000000000000000000000000000000000000000000000000000000000000008152506123aa565b6123d890919063ffffffff16565b92506115946114a6846123aa565b611586600260003373ffffffffffffffffffffffffffffffffffffffff1673ffffffffffffffffffffffffffffffffffffffff1681526020019081526020016000208054600181600116156101000203166002900480601f01602080910402602001604051908101604052809291908181526020018280546001816001161561010002031660029004801561157c5780601f106115515761010080835404028352916020019161157c565b820191906000526020600020905b81548152906001019060200180831161155f57829003601f168201915b50505050506123aa565b6123d890919063ffffffff16565b600260003373ffffffffffffffffffffffffffffffffffffffff1673ffffffffffffffffffffffffffffffffffffffff16815260200190815260200160002090805190602001906115e69291906127da565b507fbee898fd9a0ce1cf7819a71a023f4dcd8c3b8882d69e23409cbc709086385f368585604051808060200180602001838103835285818151815260200191508051906020019080838360005b8381101561164e578082015181840152602081019050611633565b50505050905090810190601f16801561167b5780820380516001836020036101000a031916815260200191505b50838103825284818151815260200191508051906020019080838360005b838110156116b4578082015181840152602081019050611699565b50505050905090810190601f1680156116e15780820380516001836020036101000a031916815260200191505b5094505050505060405180910390a15b5050505050565b823373ffffffffffffffffffffffffffffffffffffffff166001826040518082805190602001908083835b6020831015156117485780518252602082019150602081019050602083039250611723565b6001836020036101000a038019825116818451168082178552505050505050905001915050908152602001604051809103902060000160009054906101000a900473ffffffffffffffffffffffffffffffffffffffff1673ffffffffffffffffffffffffffffffffffffffff161415156117c157600080fd5b816001856040518082805190602001908083835b6020831015156117fa57805182526020820191506020810190506020830392506117d5565b6001836020036101000a038019825116818451168082178552505050505050905001915050908152602001604051809103902060030160008573ffffffffffffffffffffffffffffffffffffffff1673ffffffffffffffffffffffffffffffffffffffff16815260200190815260200160002060006101000a81548160ff0219169083151502179055507f718fac2b2c4eb816da609566da47952fe927a2af736870a471eefdd7b0f161ea848460405180806020018373ffffffffffffffffffffffffffffffffffffffff1673ffffffffffffffffffffffffffffffffffffffff168152602001828103825284818151815260200191508051906020019080838360005b838110156119195780820151818401526020810190506118fe565b50505050905090810190601f1680156119465780820380516001836020036101000a031916815260200191505b50935050505060405180910390a150505050565b6060600260003373ffffffffffffffffffffffffffffffffffffffff1673ffffffffffffffffffffffffffffffffffffffff1681526020019081526020016000208054600181600116156101000203166002900480601f016020809104026020016040519081016040528092919081815260200182805460018160011615610100020316600290048015611a2f5780601f10611a0457610100808354040283529160200191611a2f565b820191906000526020600020905b815481529060010190602001808311611a1257829003601f168201915b5050505050905090565b6000611a4361271c565b611a4b61271c565b606060008060006001896040518082805190602001908083835b602083101515611a8a5780518252602082019150602081019050602083039250611a65565b6001836020036101000a038019825116818451168082178552505050505050905001915050908152602001604051809103902096507f6acf0d4da33106edf45844ed2d57906a70ff4a5884426a93afeb78eb942523da60405160405180910390a17fd0df827659790fcd56f02362f2748e46f75c7c5ecab344799d45d2c9aae155df8760030160003373ffffffffffffffffffffffffffffffffffffffff1673ffffffffffffffffffffffffffffffffffffffff16815260200190815260200160002060009054906101000a900460ff16604051808215151515815260200191505060405180910390a18660030160003373ffffffffffffffffffffffffffffffffffffffff1673ffffffffffffffffffffffffffffffffffffffff16815260200190815260200160002060009054906101000a900460ff161561239f57600360008860000160009054906101000a900473ffffffffffffffffffffffffffffffffffffffff1673ffffffffffffffffffffffffffffffffffffffff1673ffffffffffffffffffffffffffffffffffffffff16815260200190815260200160002060a060405190810160405280600115158152602001896001018054600181600116156101000203166002900480601f016020809104026020016040519081016040528092919081815260200182805460018160011615610100020316600290048015611cd85780601f10611cad57610100808354040283529160200191611cd8565b820191906000526020600020905b815481529060010190602001808311611cbb57829003601f168201915b505050505081526020013373ffffffffffffffffffffffffffffffffffffffff1681526020013481526020018a8152509080600181540180825580915050906001820390600052602060002090600502016000909192909190915060008201518160000160006101000a81548160ff0219169083151502179055506020820151816001019080519060200190611d6f92919061275a565b5060408201518160020160006101000a81548173ffffffffffffffffffffffffffffffffffffffff021916908373ffffffffffffffffffffffffffffffffffffffff160217905550606082015181600301556080820151816004019080519060200190611ddd92919061275a565b505050507fe67cf504dbe5723ab143d19d0d13d5cc8dfadb97bbefe091aa15fa384a1bb356876001018860000160009054906101000a900473ffffffffffffffffffffffffffffffffffffffff1660405180806020018373ffffffffffffffffffffffffffffffffffffffff1673ffffffffffffffffffffffffffffffffffffffff168152602001828103825284818154600181600116156101000203166002900481526020019150805460018160011615610100020316600290048015611ee65780601f10611ebb57610100808354040283529160200191611ee6565b820191906000526020600020905b815481529060010190602001808311611ec957829003601f168201915b5050935050505060405180910390a1611f9a876002018054600181600116156101000203166002900480601f016020809104026020016040519081016040528092919081815260200182805460018160011615610100020316600290048015611f905780601f10611f6557610100808354040283529160200191611f90565b820191906000526020600020905b815481529060010190602001808311611f7357829003601f168201915b50505050506123aa565b9550611fda6040805190810160405280600181526020017f20000000000000000000000000000000000000000000000000000000000000008152506123aa565b94506001611ff1868861245a90919063ffffffff16565b0160405190808252806020026020018201604052801561202557816020015b60608152602001906001900390816120105790505b509350600092505b83518310156120795761205161204c86886124d190919063ffffffff16565b6124eb565b848481518110151561205f57fe5b90602001906020020181905250828060010193505061202d565b600091505b8351821015612366576001848381518110151561209757fe5b906020019060200201516040518082805190602001908083835b6020831015156120d657805182526020820191506020810190506020830392506120b1565b6001836020036101000a03801982511681845116808217855250505050505090500191505090815260200160405180910390209050600360008260000160009054906101000a900473ffffffffffffffffffffffffffffffffffffffff1673ffffffffffffffffffffffffffffffffffffffff1673ffffffffffffffffffffffffffffffffffffffff16815260200190815260200160002060a060405190810160405280600015158152602001836001018054600181600116156101000203166002900480601f01602080910402602001604051908101604052809291908181526020018280546001816001161561010002031660029004801561221b5780601f106121f05761010080835404028352916020019161221b565b820191906000526020600020905b8154815290600101906020018083116121fe57829003601f168201915b505050505081526020018960000160009054906101000a900473ffffffffffffffffffffffffffffffffffffffff1673ffffffffffffffffffffffffffffffffffffffff1681526020016000815260200160206040519081016040528060008152508152509080600181540180825580915050906001820390600052602060002090600502016000909192909190915060008201518160000160006101000a81548160ff02191690831515021790555060208201518160010190805190602001906122e792919061275a565b5060408201518160020160006101000a81548173ffffffffffffffffffffffffffffffffffffffff021916908373ffffffffffffffffffffffffffffffffffffffff16021790555060608201518160030155608082015181600401908051906020019061235592919061275a565b50505050818060010192505061207e565b7f2c5c836884c5046594243609b073fc2c2e126307f725d15c77b95ef9dc101e5b84516040518082815260200191505060405180910390a15b505050505050505050565b6123b261271c565b600060208301905060408051908101604052808451815260200182815250915050919050565b606080600083600001518560000151016040519080825280601f01601f19166020018201604052801561241a5781602001602082028038833980820191505090505b509150602082019050612436818660200151876000015161254d565b61244f856000015182018560200151866000015161254d565b819250505092915050565b600080826000015161247e8560000151866020015186600001518760200151612598565b0190505b8360000151846020015101811115156124ca57818060010192505082600001516124c2856020015183038660000151038386600001518760200151612598565b019050612482565b5092915050565b6124d961271c565b6124e483838361267e565b5092915050565b606080600083600001516040519080825280601f01601f1916602001820160405280156125275781602001602082028038833980820191505090505b509150602082019050612543818560200151866000015161254d565b8192505050919050565b60005b6020821015156125755782518452602084019350602083019250602082039150612550565b6001826020036101000a0390508019835116818551168181178652505050505050565b60008060008060008060008060008b97508c8b1115156126685760208b1115156126225760018b60200360080260020a03196001029550858a511694508a8d8d010393508588511692505b8460001916836000191614151561261a578388101515612607578c8c01985061266e565b87806001019850508588511692506125e3565b87985061266e565b8a8a209150600096505b8a8d0387111515612667578a882090508060001916826000191614156126545787985061266e565b600188019750868060010197505061262c565b5b8c8c0198505b5050505050505050949350505050565b61268661271c565b60006126a48560000151866020015186600001518760200151612598565b905084602001518360200181815250508460200151810383600001818152505084600001518560200151018114156126e6576000856000018181525050612711565b8360000151836000015101856000018181510391508181525050836000015181018560200181815250505b829150509392505050565b604080519081016040528060008152602001600081525090565b5080546000825560050290600052602060002090810190612757919061285a565b50565b828054600181600116156101000203166002900490600052602060002090601f016020900481019282601f1061279b57805160ff19168380011785556127c9565b828001600101855582156127c9579182015b828111156127c85782518255916020019190600101906127ad565b5b5090506127d691906128dc565b5090565b828054600181600116156101000203166002900490600052602060002090601f016020900481019282601f1061281b57805160ff1916838001178555612849565b82800160010185558215612849579182015b8281111561284857825182559160200191906001019061282d565b5b50905061285691906128dc565b5090565b6128d991905b808211156128d557600080820160006101000a81549060ff021916905560018201600061288d9190612901565b6002820160006101000a81549073ffffffffffffffffffffffffffffffffffffffff021916905560038201600090556004820160006128cc9190612901565b50600501612860565b5090565b90565b6128fe91905b808211156128fa5760008160009055506001016128e2565b5090565b90565b50805460018160011615610100020316600290046000825580601f106129275750612946565b601f01602090049060005260206000209081019061294591906128dc565b5b505600a165627a7a72305820c5cd652dc76daf77664dd5231966804e411061d866f83a1e80286dba2f9afa670029",
  "source": "pragma solidity ^0.4.23;\r\n// Use https://github.com/Arachnid/solidity-stringutils for string splitting\r\n// Note that I technically don't need this.. if I turn Resource.parts into an array\r\n\r\n// Change this later to point to downloaded local file\r\nimport \"./strings.sol\";\r\n\r\n\r\n// TODO: \r\n// 0) Create a function that resets EVERYTHING\r\n//  i) Every update to the contract state should have a corresponding event tied to it\r\n//  ii) Add openzeppellin split amount integration (do by saving payees in an array first)\r\n// iii) Add ipfs\r\n    // iii-a) https://github.com/ipfs/js-ipfs/tree/master/examples, https://github.com/ipfs/js-ipfs/tree/master/examples/ipfs-101 \r\n// iv) Add check that part (make this a modifier) and subparts (check in-function) exist, for notify\r\n\r\n// Stretch Goals\r\n\r\n// Split up payments for multiple people if more than one part specified.\r\n\r\n\r\n\r\n// In progress: Switch whitelist users to whitelist user. Ensure that the tests are also changed\r\n\r\ncontract SupplyChainEP {\r\n    using strings for *;\r\n    \r\n    /* set owner */\r\n    address owner;\r\n\r\n    /* getting information from resource name */\r\n    mapping (string => Resource) resourceInfo;\r\n\r\n    struct Resource {\r\n        address source;\r\n        string name; // Note that IRL, these could be EPCs\r\n        string parts; // space separated names of parts\r\n        mapping (address => bool) whitelistedUsers;\r\n    }\r\n\r\n    mapping (address => string) resources;\r\n\r\n    mapping (address => Request[]) requests;\r\n\r\n    struct Request {\r\n        bool directRequest; // If it's just a warning, then this is false\r\n        string resourceName;\r\n        address requester;\r\n        uint reward;\r\n        string ipfsHash;\r\n    }\r\n\r\n    /* Events */\r\n    event requestSent(string resourceName, address _address);\r\n    event warningSent(uint numberOfWarnings);\r\n    event userWhitelisted(string part, address whitelisteduser);\r\n    event resourceAdded(string part, string subparts);\r\n    event debugString(string debug);\r\n    event debugString2(string debug);\r\n    event debugInt(uint debug);\r\n\r\n    event gothere();\r\n    event debugBool(bool boolean);\r\n\r\n    /* Modifiers */\r\n    modifier verifyCaller (address _address) {require (msg.sender == _address); _;}\r\n    modifier isSource (string part) {require (resourceInfo[part].source == msg.sender); _;}\r\n    modifier isOwner () {require(msg.sender == owner); _;}\r\n    modifier notEmpty (string _string) {bytes memory stringTest = bytes(_string); require (stringTest.length != 0); _;}\r\n\r\n    constructor() public {\r\n        owner = msg.sender;\r\n    }\r\n\r\n    // When notifying people, you also send warnings to one level further down\r\n    function notify(string parts, string _ipfsHash)\r\n        payable\r\n        public\r\n    {   \r\n        Resource storage r = resourceInfo[parts];\r\n        emit gothere();\r\n        emit debugBool(r.whitelistedUsers[msg.sender]);\r\n\r\n        if(r.whitelistedUsers[msg.sender]) {\r\n            requests[r.source].push(Request({\r\n                directRequest: true,\r\n                resourceName: r.name,\r\n                requester: msg.sender,\r\n                reward: msg.value,\r\n                ipfsHash: _ipfsHash\r\n            }));\r\n            emit requestSent(r.name, r.source);\r\n            // Push warnings to each of the subparts\r\n            var s = r.parts.toSlice();\r\n            var delim = \" \".toSlice();\r\n            var subparts = new string[](s.count(delim) + 1);\r\n            for(uint j = 0; j < subparts.length; j++) {\r\n                subparts[j] = s.split(delim).toString();\r\n            }\r\n            for (uint i = 0; i < subparts.length; i++) {\r\n                Resource storage r2 = resourceInfo[subparts[i]];\r\n                requests[r2.source].push(Request({\r\n                    directRequest: false,\r\n                    resourceName: r2.name,\r\n                    requester: r.source, // We give the name of the manufacturer that is one up, so as to protect name of user of part higher up\r\n                    reward: 0,\r\n                    ipfsHash: \"\"\r\n                }));\r\n            }\r\n            emit warningSent(subparts.length);\r\n        }\r\n    }\r\n\r\n    // Add a resource to the blockchain with your address\r\n    // part names should be space separated\r\n    function addResource(string _resourceName, string _partNames)\r\n        public\r\n        notEmpty(_resourceName)\r\n    {\r\n        // First see if resource is empty\r\n        if (resourceInfo[_resourceName].source == 0) {\r\n            resourceInfo[_resourceName] = Resource({source: msg.sender, name: _resourceName, parts: _partNames});\r\n            \r\n            // Then add to owner's string of resources\r\n            var s = \" \".toSlice().concat(_resourceName.toSlice());\r\n            resources[msg.sender] = resources[msg.sender].toSlice().concat(s.toSlice());\r\n\r\n            // Emit event\r\n            emit resourceAdded(_resourceName, _partNames);\r\n        }\r\n    }\r\n\r\n    function myResources()\r\n        public\r\n        view\r\n        returns(string)\r\n    {\r\n        return resources[msg.sender];\r\n    }\r\n    \r\n    // This is for resource manufacturers to whitelist companies in order to allow them to send\r\n    // errors. Set state to 'true' if you want to whitelist users, and 'false' if you want\r\n    // to remove them from the whitelist\r\n    function whitelistUser(string part, address _whitelistedUser, bool state)\r\n        public\r\n        isSource(part)\r\n    {\r\n        // Save the reference to the mapping inside the resource struct\r\n        resourceInfo[part].whitelistedUsers[_whitelistedUser] = state;\r\n        emit userWhitelisted(part, _whitelistedUser);\r\n    }\r\n\r\n\r\n    // function whitelistUser(string part, address _whitelistedUsers, bool state)\r\n    //     public\r\n    //     isSource(part)\r\n    // {\r\n    //     // Save the reference to the mapping inside the resource struct\r\n    //     mapping (address => bool) map = resourceInfo[part].whitelistedUsers;\r\n\r\n    //     // Iterate through the given whitelisted users and save the info in the resource\r\n    //     for (uint i = 0; i < _whitelistedUsers.length; i++) {\r\n    //         map[_whitelistedUsers[i]] = state;\r\n    //     }\r\n    // }\r\n\r\n\r\n\r\n    // This is for manufacturers to receive their requests and receive their payments\r\n    // This would eventually delete all the requests by the end of the transaction\r\n    function getRequests()\r\n        public\r\n        returns (bool[], address[], uint, string)\r\n    {\r\n        Request[] storage r = requests[msg.sender];\r\n        bool[] memory isWarning = new bool[](r.length);\r\n        address[] memory notifiers = new address[](r.length);\r\n        uint payment = 0;\r\n\r\n        string memory ipfs_hash;\r\n        \r\n        for(uint i = 0; i < r.length; i++) {\r\n            isWarning[i] = r[i].directRequest;\r\n            notifiers[i] = r[i].requester;\r\n            payment = payment + r[i].reward;\r\n            ipfs_hash = ipfs_hash.toSlice().concat(r[i].ipfsHash.toSlice());\r\n            ipfs_hash = ipfs_hash.toSlice().concat(\",\".toSlice());\r\n        }\r\n        \r\n        msg.sender.transfer(payment);\r\n        delete requests[msg.sender];\r\n        return (isWarning, notifiers, payment, ipfs_hash);\r\n    }\r\n\r\n    function seeRequests()\r\n        view\r\n        public\r\n        returns (bool[], address[], uint, string)\r\n    {\r\n        Request[] storage r = requests[msg.sender];\r\n        bool[] memory isWarning = new bool[](r.length);\r\n        address[] memory notifiers = new address[](r.length);\r\n        uint payment = 0;\r\n\r\n        string memory ipfs_hash;\r\n\r\n        for(uint i = 0; i < r.length; i++) {\r\n            isWarning[i] = r[i].directRequest;\r\n            notifiers[i] = r[i].requester;\r\n            payment = payment + r[i].reward;\r\n            ipfs_hash = ipfs_hash.toSlice().concat(r[i].ipfsHash.toSlice());\r\n            ipfs_hash = ipfs_hash.toSlice().concat(\",\".toSlice());\r\n        }\r\n        return (isWarning, notifiers, payment, ipfs_hash);\r\n    }\r\n\r\n    // For Debugging\r\n    function getSubparts(string part)\r\n        public\r\n        returns (string)\r\n    {\r\n        return resourceInfo[part].parts;\r\n    }\r\n\r\n    // For Debugging. To be tested on a part that has two subparts\r\n    function splitSubparts(string part)\r\n        public\r\n    {\r\n        var s = resourceInfo[part].parts.toSlice();\r\n        var delim = \" \".toSlice();\r\n        emit debugInt(s.count(delim) + 1);\r\n        var subparts = new string[](s.count(delim) + 1);\r\n        for(uint i = 0; i < subparts.length; i++) {\r\n            subparts[i] = s.split(delim).toString();\r\n        }\r\n        emit debugString(subparts[0]);\r\n        emit debugString2(subparts[1]);\r\n    }\r\n}",
  "sourcePath": "C:\\Users\\alexm\\OneDrive\\Desktop\\fin\\contracts\\SupplyChainEP.sol",
  "compiler": {
    "name": "solc",
    "version": "0.4.24+commit.e67f0147.Emscripten.clang"
  },
  "schemaVersion": "2.0.0",
  "updatedAt": "2018-08-17T08:58:37.399Z"
}