{
  "contractName": "SupplyChainEP",
  "abi": [
    {
      "inputs": [],
      "payable": false,
      "stateMutability": "nonpayable",
      "type": "constructor"
    },
    {
      "anonymous": false,
      "inputs": [
        {
          "indexed": false,
          "name": "resourceName",
          "type": "string"
        },
        {
          "indexed": false,
          "name": "_address",
          "type": "address"
        }
      ],
      "name": "requestSent",
      "type": "event"
    },
    {
      "anonymous": false,
      "inputs": [
        {
          "indexed": false,
          "name": "numberOfWarnings",
          "type": "uint256"
        }
      ],
      "name": "warningSent",
      "type": "event"
    },
    {
      "anonymous": false,
      "inputs": [
        {
          "indexed": false,
          "name": "part",
          "type": "string"
        },
        {
          "indexed": false,
          "name": "whitelisteduser",
          "type": "address"
        }
      ],
      "name": "userWhitelisted",
      "type": "event"
    },
    {
      "anonymous": false,
      "inputs": [
        {
          "indexed": false,
          "name": "part",
          "type": "string"
        },
        {
          "indexed": false,
          "name": "subparts",
          "type": "string"
        }
      ],
      "name": "resourceAdded",
      "type": "event"
    },
    {
      "anonymous": false,
      "inputs": [
        {
          "indexed": false,
          "name": "debug",
          "type": "string"
        }
      ],
      "name": "debugString",
      "type": "event"
    },
    {
      "anonymous": false,
      "inputs": [
        {
          "indexed": false,
          "name": "debug",
          "type": "string"
        }
      ],
      "name": "debugString2",
      "type": "event"
    },
    {
      "anonymous": false,
      "inputs": [
        {
          "indexed": false,
          "name": "debug",
          "type": "uint256"
        }
      ],
      "name": "debugInt",
      "type": "event"
    },
    {
      "anonymous": false,
      "inputs": [
        {
          "indexed": false,
          "name": "status",
          "type": "bool"
        }
      ],
      "name": "stoppedChange",
      "type": "event"
    },
    {
      "anonymous": false,
      "inputs": [],
      "name": "gothere",
      "type": "event"
    },
    {
      "anonymous": false,
      "inputs": [
        {
          "indexed": false,
          "name": "boolean",
          "type": "bool"
        }
      ],
      "name": "debugBool",
      "type": "event"
    },
    {
      "constant": false,
      "inputs": [],
      "name": "toggleContractActive",
      "outputs": [],
      "payable": false,
      "stateMutability": "nonpayable",
      "type": "function"
    },
    {
      "constant": false,
      "inputs": [
        {
          "name": "parts",
          "type": "string"
        },
        {
          "name": "_ipfsHash",
          "type": "string"
        }
      ],
      "name": "notify",
      "outputs": [],
      "payable": true,
      "stateMutability": "payable",
      "type": "function"
    },
    {
      "constant": false,
      "inputs": [
        {
          "name": "_resourceName",
          "type": "string"
        },
        {
          "name": "_partNames",
          "type": "string"
        }
      ],
      "name": "addResource",
      "outputs": [],
      "payable": false,
      "stateMutability": "nonpayable",
      "type": "function"
    },
    {
      "constant": true,
      "inputs": [],
      "name": "myResources",
      "outputs": [
        {
          "name": "",
          "type": "string"
        }
      ],
      "payable": false,
      "stateMutability": "view",
      "type": "function"
    },
    {
      "constant": false,
      "inputs": [
        {
          "name": "part",
          "type": "string"
        },
        {
          "name": "_whitelistedUser",
          "type": "address"
        },
        {
          "name": "state",
          "type": "bool"
        }
      ],
      "name": "whitelistUser",
      "outputs": [],
      "payable": false,
      "stateMutability": "nonpayable",
      "type": "function"
    },
    {
      "constant": false,
      "inputs": [],
      "name": "getRequests",
      "outputs": [
        {
          "name": "",
          "type": "bool[]"
        },
        {
          "name": "",
          "type": "address[]"
        },
        {
          "name": "",
          "type": "uint256"
        },
        {
          "name": "",
          "type": "string"
        }
      ],
      "payable": false,
      "stateMutability": "nonpayable",
      "type": "function"
    },
    {
      "constant": true,
      "inputs": [],
      "name": "checkEmergencyStop",
      "outputs": [
        {
          "name": "",
          "type": "bool"
        }
      ],
      "payable": false,
      "stateMutability": "view",
      "type": "function"
    },
    {
      "constant": false,
      "inputs": [
        {
          "name": "part",
          "type": "string"
        }
      ],
      "name": "getSubparts",
      "outputs": [
        {
          "name": "",
          "type": "string"
        }
      ],
      "payable": false,
      "stateMutability": "nonpayable",
      "type": "function"
    },
    {
      "constant": false,
      "inputs": [
        {
          "name": "part",
          "type": "string"
        }
      ],
      "name": "splitSubparts",
      "outputs": [],
      "payable": false,
      "stateMutability": "nonpayable",
      "type": "function"
    }
  ],
  "bytecode": "0x608060405260008060006101000a81548160ff02191690831515021790555034801561002a57600080fd5b5033600060016101000a81548173ffffffffffffffffffffffffffffffffffffffff021916908373ffffffffffffffffffffffffffffffffffffffff1602179055506126c48061007b6000396000f300608060405260043610610099576000357c0100000000000000000000000000000000000000000000000000000000900463ffffffff1680631385d24c1461009e5780637d086bea146100b557806387259b091461011e5780638813ce12146102005780638d2250301461032757806395a902f5146103d65780639c6cf53e1461046b578063a45f066c146104fb578063b35c63201461052a575b600080fd5b3480156100aa57600080fd5b506100b36105cc565b005b3480156100c157600080fd5b5061011c600480360381019080803590602001908201803590602001908080601f016020809104026020016040519081016040528093929190818152602001838380828437820191505050505050919291929050505061069b565b005b34801561012a57600080fd5b50610185600480360381019080803590602001908201803590602001908080601f0160208091040260200160405190810160405280939291908181526020018383808284378201915050505050509192919290505050610a58565b6040518080602001828103825283818151815260200191508051906020019080838360005b838110156101c55780820151818401526020810190506101aa565b50505050905090810190601f1680156101f25780820380516001836020036101000a031916815260200191505b509250505060405180910390f35b34801561020c57600080fd5b50610215610b68565b60405180806020018060200185815260200180602001848103845288818151815260200191508051906020019060200280838360005b8381101561026657808201518184015260208101905061024b565b50505050905001848103835287818151815260200191508051906020019060200280838360005b838110156102a857808201518184015260208101905061028d565b50505050905001848103825285818151815260200191508051906020019080838360005b838110156102e75780820151818401526020810190506102cc565b50505050905090810190601f1680156103145780820380516001836020036101000a031916815260200191505b5097505050505050505060405180910390f35b34801561033357600080fd5b506103d4600480360381019080803590602001908201803590602001908080601f0160208091040260200160405190810160405280939291908181526020018383808284378201915050505050509192919290803590602001908201803590602001908080601f0160208091040260200160405190810160405280939291908181526020018383808284378201915050505050509192919290505050610f41565b005b3480156103e257600080fd5b50610469600480360381019080803590602001908201803590602001908080601f0160208091040260200160405190810160405280939291908181526020018383808284378201915050505050509192919290803573ffffffffffffffffffffffffffffffffffffffff1690602001909291908035151590602001909291905050506113fb565b005b34801561047757600080fd5b50610480611678565b6040518080602001828103825283818151815260200191508051906020019080838360005b838110156104c05780820151818401526020810190506104a5565b50505050905090810190601f1680156104ed5780820380516001836020036101000a031916815260200191505b509250505060405180910390f35b34801561050757600080fd5b50610510611757565b604051808215151515815260200191505060405180910390f35b6105ca600480360381019080803590602001908201803590602001908080601f0160208091040260200160405190810160405280939291908181526020018383808284378201915050505050509192919290803590602001908201803590602001908080601f016020809104026020016040519081016040528093929190818152602001838380828437820191505050505050919291929050505061176d565b005b600060019054906101000a900473ffffffffffffffffffffffffffffffffffffffff1673ffffffffffffffffffffffffffffffffffffffff163373ffffffffffffffffffffffffffffffffffffffff1614151561062857600080fd5b6000809054906101000a900460ff16156000806101000a81548160ff0219169083151502179055507f0df7318cfb63f5e38621959a698ce3e05fcc5a5d50099327b2d1468556e1e03b6000809054906101000a900460ff16604051808215151515815260200191505060405180910390a1565b6106a361246b565b6106ab61246b565b606060006107be6001866040518082805190602001908083835b6020831015156106ea57805182526020820191506020810190506020830392506106c5565b6001836020036101000a03801982511681845116808217855250505050505090500191505090815260200160405180910390206002018054600181600116156101000203166002900480601f0160208091040260200160405190810160405280929190818152602001828054600181600116156101000203166002900480156107b45780601f10610789576101008083540402835291602001916107b4565b820191906000526020600020905b81548152906001019060200180831161079757829003601f168201915b50505050506120f9565b93506107fe6040805190810160405280600181526020017f20000000000000000000000000000000000000000000000000000000000000008152506120f9565b92507fcea289db3c38a33e9c6c365141bdf93e7eca7882710e23dacaedd9301bd23daa6001610836858761212790919063ffffffff16565b016040518082815260200191505060405180910390a16001610861848661212790919063ffffffff16565b0160405190808252806020026020018201604052801561089557816020015b60608152602001906001900390816108805790505b509150600090505b81518110156108e9576108c16108bc848661219e90919063ffffffff16565b6121b8565b82828151811015156108cf57fe5b90602001906020020181905250808060010191505061089d565b7fb6d929cf1fe5fa86cd77b7dd8b4eff68efd24e69c6e0e8618a2ee1c6e64a4b8282600081518110151561091957fe5b906020019060200201516040518080602001828103825283818151815260200191508051906020019080838360005b83811015610963578082015181840152602081019050610948565b50505050905090810190601f1680156109905780820380516001836020036101000a031916815260200191505b509250505060405180910390a17fc1f6b44d635a29f1051d306f9bf38ddef06214d4fb782a58b3f2f814cfcab1b18260018151811015156109cd57fe5b906020019060200201516040518080602001828103825283818151815260200191508051906020019080838360005b83811015610a175780820151818401526020810190506109fc565b50505050905090810190601f168015610a445780820380516001836020036101000a031916815260200191505b509250505060405180910390a15050505050565b60606001826040518082805190602001908083835b602083101515610a925780518252602082019150602081019050602083039250610a6d565b6001836020036101000a03801982511681845116808217855250505050505090500191505090815260200160405180910390206002018054600181600116156101000203166002900480601f016020809104026020016040519081016040528092919081815260200182805460018160011615610100020316600290048015610b5c5780601f10610b3157610100808354040283529160200191610b5c565b820191906000526020600020905b815481529060010190602001808311610b3f57829003601f168201915b50505050509050919050565b6060806000606060006060806000606060008060009054906101000a900460ff16151515610b9557600080fd5b600360003373ffffffffffffffffffffffffffffffffffffffff1673ffffffffffffffffffffffffffffffffffffffff16815260200190815260200160002095508580549050604051908082528060200260200182016040528015610c095781602001602082028038833980820191505090505b5094508580549050604051908082528060200260200182016040528015610c3f5781602001602082028038833980820191505090505b50935060009250600090505b8580549050811015610e97578581815481101515610c6557fe5b906000526020600020906005020160000160009054906101000a900460ff168582815181101515610c9257fe5b90602001906020020190151590811515815250508581815481101515610cb457fe5b906000526020600020906005020160020160009054906101000a900473ffffffffffffffffffffffffffffffffffffffff168482815181101515610cf457fe5b9060200190602002019073ffffffffffffffffffffffffffffffffffffffff16908173ffffffffffffffffffffffffffffffffffffffff16815250508581815481101515610d3e57fe5b90600052602060002090600502016003015483019250610e2e610e178783815481101515610d6857fe5b90600052602060002090600502016004018054600181600116156101000203166002900480601f016020809104026020016040519081016040528092919081815260200182805460018160011615610100020316600290048015610e0d5780601f10610de257610100808354040283529160200191610e0d565b820191906000526020600020905b815481529060010190602001808311610df057829003601f168201915b50505050506120f9565b610e20846120f9565b61221a90919063ffffffff16565b9150610e88610e716040805190810160405280600181526020017f2c000000000000000000000000000000000000000000000000000000000000008152506120f9565b610e7a846120f9565b61221a90919063ffffffff16565b91508080600101915050610c4b565b3373ffffffffffffffffffffffffffffffffffffffff166108fc849081150290604051600060405180830381858888f19350505050158015610edd573d6000803e3d6000fd5b50600360003373ffffffffffffffffffffffffffffffffffffffff1673ffffffffffffffffffffffffffffffffffffffff1681526020019081526020016000206000610f299190612485565b84848484995099509950995050505050505090919293565b60606000809054906101000a900460ff16151515610f5e57600080fd5b8260608190506000815114151515610f7557600080fd5b60006001866040518082805190602001908083835b602083101515610faf5780518252602082019150602081019050602083039250610f8a565b6001836020036101000a038019825116818451168082178552505050505050905001915050908152602001604051809103902060000160009054906101000a900473ffffffffffffffffffffffffffffffffffffffff1673ffffffffffffffffffffffffffffffffffffffff1614156113f4576060604051908101604052803373ffffffffffffffffffffffffffffffffffffffff168152602001868152602001858152506001866040518082805190602001908083835b60208310151561108c5780518252602082019150602081019050602083039250611067565b6001836020036101000a038019825116818451168082178552505050505050905001915050908152602001604051809103902060008201518160000160006101000a81548173ffffffffffffffffffffffffffffffffffffffff021916908373ffffffffffffffffffffffffffffffffffffffff16021790555060208201518160010190805190602001906111229291906124a9565b50604082015181600201908051906020019061113f9291906124a9565b5090505061119b61114f866120f9565b61118d6040805190810160405280600181526020017f20000000000000000000000000000000000000000000000000000000000000008152506120f9565b61221a90919063ffffffff16565b92506112976111a9846120f9565b611289600260003373ffffffffffffffffffffffffffffffffffffffff1673ffffffffffffffffffffffffffffffffffffffff1681526020019081526020016000208054600181600116156101000203166002900480601f01602080910402602001604051908101604052809291908181526020018280546001816001161561010002031660029004801561127f5780601f106112545761010080835404028352916020019161127f565b820191906000526020600020905b81548152906001019060200180831161126257829003601f168201915b50505050506120f9565b61221a90919063ffffffff16565b600260003373ffffffffffffffffffffffffffffffffffffffff1673ffffffffffffffffffffffffffffffffffffffff16815260200190815260200160002090805190602001906112e9929190612529565b507fbee898fd9a0ce1cf7819a71a023f4dcd8c3b8882d69e23409cbc709086385f368585604051808060200180602001838103835285818151815260200191508051906020019080838360005b83811015611351578082015181840152602081019050611336565b50505050905090810190601f16801561137e5780820380516001836020036101000a031916815260200191505b50838103825284818151815260200191508051906020019080838360005b838110156113b757808201518184015260208101905061139c565b50505050905090810190601f1680156113e45780820380516001836020036101000a031916815260200191505b5094505050505060405180910390a15b5050505050565b6000809054906101000a900460ff1615151561141657600080fd5b823373ffffffffffffffffffffffffffffffffffffffff166001826040518082805190602001908083835b6020831015156114665780518252602082019150602081019050602083039250611441565b6001836020036101000a038019825116818451168082178552505050505050905001915050908152602001604051809103902060000160009054906101000a900473ffffffffffffffffffffffffffffffffffffffff1673ffffffffffffffffffffffffffffffffffffffff161415156114df57600080fd5b816001856040518082805190602001908083835b60208310151561151857805182526020820191506020810190506020830392506114f3565b6001836020036101000a038019825116818451168082178552505050505050905001915050908152602001604051809103902060030160008573ffffffffffffffffffffffffffffffffffffffff1673ffffffffffffffffffffffffffffffffffffffff16815260200190815260200160002060006101000a81548160ff0219169083151502179055507f718fac2b2c4eb816da609566da47952fe927a2af736870a471eefdd7b0f161ea848460405180806020018373ffffffffffffffffffffffffffffffffffffffff1673ffffffffffffffffffffffffffffffffffffffff168152602001828103825284818151815260200191508051906020019080838360005b8381101561163757808201518184015260208101905061161c565b50505050905090810190601f1680156116645780820380516001836020036101000a031916815260200191505b50935050505060405180910390a150505050565b6060600260003373ffffffffffffffffffffffffffffffffffffffff1673ffffffffffffffffffffffffffffffffffffffff1681526020019081526020016000208054600181600116156101000203166002900480601f01602080910402602001604051908101604052809291908181526020018280546001816001161561010002031660029004801561174d5780601f106117225761010080835404028352916020019161174d565b820191906000526020600020905b81548152906001019060200180831161173057829003601f168201915b5050505050905090565b60008060009054906101000a900460ff16905090565b600061177761246b565b61177f61246b565b606060008060008060009054906101000a900460ff161515156117a157600080fd5b6001896040518082805190602001908083835b6020831015156117d957805182526020820191506020810190506020830392506117b4565b6001836020036101000a038019825116818451168082178552505050505050905001915050908152602001604051809103902096507f6acf0d4da33106edf45844ed2d57906a70ff4a5884426a93afeb78eb942523da60405160405180910390a17fd0df827659790fcd56f02362f2748e46f75c7c5ecab344799d45d2c9aae155df8760030160003373ffffffffffffffffffffffffffffffffffffffff1673ffffffffffffffffffffffffffffffffffffffff16815260200190815260200160002060009054906101000a900460ff16604051808215151515815260200191505060405180910390a18660030160003373ffffffffffffffffffffffffffffffffffffffff1673ffffffffffffffffffffffffffffffffffffffff16815260200190815260200160002060009054906101000a900460ff16156120ee57600360008860000160009054906101000a900473ffffffffffffffffffffffffffffffffffffffff1673ffffffffffffffffffffffffffffffffffffffff1673ffffffffffffffffffffffffffffffffffffffff16815260200190815260200160002060a060405190810160405280600115158152602001896001018054600181600116156101000203166002900480601f016020809104026020016040519081016040528092919081815260200182805460018160011615610100020316600290048015611a275780601f106119fc57610100808354040283529160200191611a27565b820191906000526020600020905b815481529060010190602001808311611a0a57829003601f168201915b505050505081526020013373ffffffffffffffffffffffffffffffffffffffff1681526020013481526020018a8152509080600181540180825580915050906001820390600052602060002090600502016000909192909190915060008201518160000160006101000a81548160ff0219169083151502179055506020820151816001019080519060200190611abe9291906124a9565b5060408201518160020160006101000a81548173ffffffffffffffffffffffffffffffffffffffff021916908373ffffffffffffffffffffffffffffffffffffffff160217905550606082015181600301556080820151816004019080519060200190611b2c9291906124a9565b505050507fe67cf504dbe5723ab143d19d0d13d5cc8dfadb97bbefe091aa15fa384a1bb356876001018860000160009054906101000a900473ffffffffffffffffffffffffffffffffffffffff1660405180806020018373ffffffffffffffffffffffffffffffffffffffff1673ffffffffffffffffffffffffffffffffffffffff168152602001828103825284818154600181600116156101000203166002900481526020019150805460018160011615610100020316600290048015611c355780601f10611c0a57610100808354040283529160200191611c35565b820191906000526020600020905b815481529060010190602001808311611c1857829003601f168201915b5050935050505060405180910390a1611ce9876002018054600181600116156101000203166002900480601f016020809104026020016040519081016040528092919081815260200182805460018160011615610100020316600290048015611cdf5780601f10611cb457610100808354040283529160200191611cdf565b820191906000526020600020905b815481529060010190602001808311611cc257829003601f168201915b50505050506120f9565b9550611d296040805190810160405280600181526020017f20000000000000000000000000000000000000000000000000000000000000008152506120f9565b94506001611d40868861212790919063ffffffff16565b01604051908082528060200260200182016040528015611d7457816020015b6060815260200190600190039081611d5f5790505b509350600092505b8351831015611dc857611da0611d9b868861219e90919063ffffffff16565b6121b8565b8484815181101515611dae57fe5b906020019060200201819052508280600101935050611d7c565b600091505b83518210156120b55760018483815181101515611de657fe5b906020019060200201516040518082805190602001908083835b602083101515611e255780518252602082019150602081019050602083039250611e00565b6001836020036101000a03801982511681845116808217855250505050505090500191505090815260200160405180910390209050600360008260000160009054906101000a900473ffffffffffffffffffffffffffffffffffffffff1673ffffffffffffffffffffffffffffffffffffffff1673ffffffffffffffffffffffffffffffffffffffff16815260200190815260200160002060a060405190810160405280600015158152602001836001018054600181600116156101000203166002900480601f016020809104026020016040519081016040528092919081815260200182805460018160011615610100020316600290048015611f6a5780601f10611f3f57610100808354040283529160200191611f6a565b820191906000526020600020905b815481529060010190602001808311611f4d57829003601f168201915b505050505081526020018960000160009054906101000a900473ffffffffffffffffffffffffffffffffffffffff1673ffffffffffffffffffffffffffffffffffffffff1681526020016000815260200160206040519081016040528060008152508152509080600181540180825580915050906001820390600052602060002090600502016000909192909190915060008201518160000160006101000a81548160ff02191690831515021790555060208201518160010190805190602001906120369291906124a9565b5060408201518160020160006101000a81548173ffffffffffffffffffffffffffffffffffffffff021916908373ffffffffffffffffffffffffffffffffffffffff1602179055506060820151816003015560808201518160040190805190602001906120a49291906124a9565b505050508180600101925050611dcd565b7f2c5c836884c5046594243609b073fc2c2e126307f725d15c77b95ef9dc101e5b84516040518082815260200191505060405180910390a15b505050505050505050565b61210161246b565b600060208301905060408051908101604052808451815260200182815250915050919050565b600080826000015161214b856000015186602001518660000151876020015161229c565b0190505b836000015184602001510181111515612197578180600101925050826000015161218f85602001518303866000015103838660000151876020015161229c565b01905061214f565b5092915050565b6121a661246b565b6121b1838383612382565b5092915050565b606080600083600001516040519080825280601f01601f1916602001820160405280156121f45781602001602082028038833980820191505090505b5091506020820190506122108185602001518660000151612420565b8192505050919050565b606080600083600001518560000151016040519080825280601f01601f19166020018201604052801561225c5781602001602082028038833980820191505090505b5091506020820190506122788186602001518760000151612420565b6122918560000151820185602001518660000151612420565b819250505092915050565b60008060008060008060008060008b97508c8b11151561236c5760208b1115156123265760018b60200360080260020a03196001029550858a511694508a8d8d010393508588511692505b8460001916836000191614151561231e57838810151561230b578c8c019850612372565b87806001019850508588511692506122e7565b879850612372565b8a8a209150600096505b8a8d038711151561236b578a8820905080600019168260001916141561235857879850612372565b6001880197508680600101975050612330565b5b8c8c0198505b5050505050505050949350505050565b61238a61246b565b60006123a8856000015186602001518660000151876020015161229c565b905084602001518360200181815250508460200151810383600001818152505084600001518560200151018114156123ea576000856000018181525050612415565b8360000151836000015101856000018181510391508181525050836000015181018560200181815250505b829150509392505050565b60005b6020821015156124485782518452602084019350602083019250602082039150612423565b6001826020036101000a0390508019835116818551168181178652505050505050565b604080519081016040528060008152602001600081525090565b50805460008255600502906000526020600020908101906124a691906125a9565b50565b828054600181600116156101000203166002900490600052602060002090601f016020900481019282601f106124ea57805160ff1916838001178555612518565b82800160010185558215612518579182015b828111156125175782518255916020019190600101906124fc565b5b509050612525919061262b565b5090565b828054600181600116156101000203166002900490600052602060002090601f016020900481019282601f1061256a57805160ff1916838001178555612598565b82800160010185558215612598579182015b8281111561259757825182559160200191906001019061257c565b5b5090506125a5919061262b565b5090565b61262891905b8082111561262457600080820160006101000a81549060ff02191690556001820160006125dc9190612650565b6002820160006101000a81549073ffffffffffffffffffffffffffffffffffffffff0219169055600382016000905560048201600061261b9190612650565b506005016125af565b5090565b90565b61264d91905b80821115612649576000816000905550600101612631565b5090565b90565b50805460018160011615610100020316600290046000825580601f106126765750612695565b601f016020900490600052602060002090810190612694919061262b565b5b505600a165627a7a72305820acfb2cbbbd7a8fc54d61dff2b384ba03f479abeaaa0ef429b3375a914cc857780029",
  "source": "pragma solidity ^0.4.23;\r\n\r\n// Use https://github.com/Arachnid/solidity-stringutils for string splitting\r\nimport \"./strings.sol\";\r\n\r\n/** @title Supply Chain Error Propagation Contract */\r\ncontract SupplyChainEP {\r\n    using strings for *;\r\n\r\n    // Keeps track of status of circuit breaker\r\n    bool private stopped = false;\r\n    \r\n    // Keeps track of owner\r\n    address owner;\r\n\r\n    // Input string to get information about resource\r\n    mapping (string => Resource) resourceInfo;\r\n\r\n    // Struct containing information on resource\r\n    struct Resource {\r\n        address source;\r\n        string name;\r\n        string parts; // Space separated components of parts\r\n        mapping (address => bool) whitelistedUsers;\r\n    }\r\n\r\n    // Grabs the name of the resources based on address\r\n    mapping (address => string) resources;\r\n\r\n    // Provides array of requests that a user has\r\n    mapping (address => Request[]) requests;\r\n\r\n    // Struct containing information on request\r\n    struct Request {\r\n        bool directRequest; // Errors are true, warnings are false.\r\n        string resourceName;\r\n        address requester;\r\n        uint reward;\r\n        string ipfsHash;    // Address of IPFS file\r\n    }\r\n\r\n    // Events\r\n    event requestSent(string resourceName, address _address);\r\n    event warningSent(uint numberOfWarnings);\r\n    event userWhitelisted(string part, address whitelisteduser);\r\n    event resourceAdded(string part, string subparts);\r\n    event debugString(string debug);\r\n    event debugString2(string debug);\r\n    event debugInt(uint debug);\r\n    event stoppedChange(bool status);\r\n    event gothere();\r\n    event debugBool(bool boolean);\r\n\r\n    // Modifiers\r\n    modifier verifyCaller (address _address) {require (msg.sender == _address); _;}\r\n    modifier isSource (string part) {require (resourceInfo[part].source == msg.sender); _;}\r\n    modifier isOwner () {require(msg.sender == owner); _;}\r\n    modifier notEmpty (string _string) {bytes memory stringTest = bytes(_string); require (stringTest.length != 0); _;}\r\n    modifier stopInEmergency {require(!stopped); _;}\r\n\r\n    /**\r\n        @dev Initializes the contract\r\n     */\r\n    constructor() public {\r\n        owner = msg.sender;\r\n    }\r\n\r\n    /**\r\n        @dev Toggles circuit breaker state, if you are admin. Emits \"stoppedChange\" event.\r\n     */\r\n    function toggleContractActive() isOwner public {\r\n        stopped = !stopped;\r\n        emit stoppedChange(stopped);\r\n    }\r\n\r\n    /**\r\n        @dev Sends notifications and warnings for a given part, so long as sender is whitelisted for the part. Also pays 1 ether to the owner.\r\n        @param parts Name of the part whose owner is to be notified\r\n        @param _ipfsHash Address of the file in IPFS\r\n     */\r\n    function notify(string parts, string _ipfsHash)\r\n        payable\r\n        stopInEmergency\r\n        public\r\n    {   \r\n        Resource storage r = resourceInfo[parts];\r\n        emit gothere();\r\n        emit debugBool(r.whitelistedUsers[msg.sender]);\r\n\r\n        // Push error to owner of the part\r\n        if(r.whitelistedUsers[msg.sender]) {\r\n            requests[r.source].push(Request({\r\n                directRequest: true,\r\n                resourceName: r.name,\r\n                requester: msg.sender,\r\n                reward: msg.value,\r\n                ipfsHash: _ipfsHash\r\n            }));\r\n            emit requestSent(r.name, r.source);\r\n\r\n            // Push warnings to each of the subparts\r\n            var s = r.parts.toSlice();\r\n            var delim = \" \".toSlice();\r\n            var subparts = new string[](s.count(delim) + 1);\r\n            for(uint j = 0; j < subparts.length; j++) {\r\n                subparts[j] = s.split(delim).toString();\r\n            }\r\n            for (uint i = 0; i < subparts.length; i++) {\r\n                Resource storage r2 = resourceInfo[subparts[i]];\r\n                requests[r2.source].push(Request({\r\n                    directRequest: false,\r\n                    resourceName: r2.name,\r\n                    requester: r.source,\r\n                    reward: 0,\r\n                    ipfsHash: \"\"\r\n                }));\r\n            }\r\n            emit warningSent(subparts.length);\r\n        }\r\n    }\r\n\r\n    /**\r\n        @dev Adds a resource to the blockchain under the sender's address\r\n        @param _resourceName The name of the new resource\r\n        @param _partNames The name of the new resource's subparts, space separated\r\n     */\r\n    function addResource(string _resourceName, string _partNames)\r\n        public\r\n        stopInEmergency\r\n        notEmpty(_resourceName)\r\n    {\r\n        // First see if resource is empty\r\n        if (resourceInfo[_resourceName].source == 0) {\r\n            resourceInfo[_resourceName] = Resource({source: msg.sender, name: _resourceName, parts: _partNames});\r\n            \r\n            // Then add to owner's string of resources\r\n            var s = \" \".toSlice().concat(_resourceName.toSlice());\r\n            resources[msg.sender] = resources[msg.sender].toSlice().concat(s.toSlice());\r\n\r\n            // Emit event\r\n            emit resourceAdded(_resourceName, _partNames);\r\n        }\r\n    }\r\n\r\n    /**\r\n        @dev Provides a list of one's own resources\r\n        @return s A string containing space separated names of resources that the sender owns\r\n     */\r\n    function myResources()\r\n        public\r\n        view\r\n        returns(string)\r\n    {\r\n        return resources[msg.sender];\r\n    }\r\n    \r\n    /**\r\n        @dev Whitelist another user for a part to allow them to send notifications to you.\r\n        @param part Name of the part to allow other user to send errors for\r\n        @param _whitelistedUser Address of other user\r\n        @param state True to whitelist, false to remove them from the resource's whitelist\r\n     */\r\n    function whitelistUser(string part, address _whitelistedUser, bool state)\r\n        public\r\n        stopInEmergency\r\n        isSource(part)\r\n    {\r\n        // Save the reference to the mapping inside the resource struct\r\n        resourceInfo[part].whitelistedUsers[_whitelistedUser] = state;\r\n        emit userWhitelisted(part, _whitelistedUser);\r\n    }\r\n\r\n    /**\r\n        @dev Return all error notifications and warnings that belongs to the sender. Erases error notifications and warnings for that sender within the blockchain.\r\n        @return bool[] List of boolean values that corresponds to whether notification at a certain index is an error notification or a warning\r\n        @return address[] List of addresses that have sent the sender a notification\r\n        @return uint Amount of ether sent by the requests\r\n        @return string The ipfs addresses combined into one string, comma separated\r\n     */\r\n    function getRequests()\r\n        public\r\n        stopInEmergency\r\n        returns (bool[], address[], uint, string)\r\n    {\r\n        Request[] storage r = requests[msg.sender];\r\n        bool[] memory isWarning = new bool[](r.length);\r\n        address[] memory notifiers = new address[](r.length);\r\n        uint payment = 0;\r\n\r\n        string memory ipfs_hash;\r\n        \r\n        for(uint i = 0; i < r.length; i++) {\r\n            isWarning[i] = r[i].directRequest;\r\n            notifiers[i] = r[i].requester;\r\n            payment = payment + r[i].reward;\r\n            ipfs_hash = ipfs_hash.toSlice().concat(r[i].ipfsHash.toSlice());\r\n            ipfs_hash = ipfs_hash.toSlice().concat(\",\".toSlice());\r\n        }\r\n        \r\n        msg.sender.transfer(payment);\r\n        delete requests[msg.sender];\r\n        return (isWarning, notifiers, payment, ipfs_hash);\r\n    }\r\n\r\n    /**\r\n        @dev Checks the current status of the circuit breaker\r\n        @return bool True if circuit breaker is on, false otherwise\r\n     */\r\n    function checkEmergencyStop()\r\n        public\r\n        view\r\n        returns (bool)\r\n    {\r\n        return stopped;\r\n    }\r\n\r\n    /**\r\n        @dev Gets the subparts of a given resource\r\n        @param part The name of the part, whose subparts you are looking for\r\n        @return string A strng containing space separated names of subparts\r\n     */\r\n    function getSubparts(string part)\r\n        public\r\n        returns (string)\r\n    {\r\n        return resourceInfo[part].parts;\r\n    }\r\n\r\n    /**\r\n        @dev A debugging function to check if the string library is working correcntly. Grabs the first two subparts of a part\r\n        @param part The part whose first two subparts are to be checked\r\n     */\r\n    function splitSubparts(string part)\r\n        public\r\n    {\r\n        var s = resourceInfo[part].parts.toSlice();\r\n        var delim = \" \".toSlice();\r\n        emit debugInt(s.count(delim) + 1);\r\n        var subparts = new string[](s.count(delim) + 1);\r\n        for(uint i = 0; i < subparts.length; i++) {\r\n            subparts[i] = s.split(delim).toString();\r\n        }\r\n        emit debugString(subparts[0]);\r\n        emit debugString2(subparts[1]);\r\n    }\r\n}",
  "sourcePath": "C:\\Users\\alexm\\OneDrive\\Desktop\\fin\\contracts\\SupplyChainEP.sol",
  "compiler": {
    "name": "solc",
    "version": "0.4.24+commit.e67f0147.Emscripten.clang"
  },
  "schemaVersion": "2.0.0",
  "updatedAt": "2018-08-20T06:14:38.599Z"
}