{
  "contractName": "SupplyChainEP",
  "abi": [
    {
      "inputs": [],
      "payable": false,
      "stateMutability": "nonpayable",
      "type": "constructor"
    },
    {
      "anonymous": false,
      "inputs": [
        {
          "indexed": false,
          "name": "resourceName",
          "type": "string"
        },
        {
          "indexed": false,
          "name": "_address",
          "type": "address"
        }
      ],
      "name": "requestSent",
      "type": "event"
    },
    {
      "anonymous": false,
      "inputs": [
        {
          "indexed": false,
          "name": "numberOfWarnings",
          "type": "uint256"
        }
      ],
      "name": "warningSent",
      "type": "event"
    },
    {
      "anonymous": false,
      "inputs": [
        {
          "indexed": false,
          "name": "part",
          "type": "string"
        },
        {
          "indexed": false,
          "name": "whitelisteduser",
          "type": "address"
        }
      ],
      "name": "userWhitelisted",
      "type": "event"
    },
    {
      "anonymous": false,
      "inputs": [
        {
          "indexed": false,
          "name": "part",
          "type": "string"
        },
        {
          "indexed": false,
          "name": "subparts",
          "type": "string"
        }
      ],
      "name": "resourceAdded",
      "type": "event"
    },
    {
      "anonymous": false,
      "inputs": [
        {
          "indexed": false,
          "name": "debug",
          "type": "string"
        }
      ],
      "name": "debugString",
      "type": "event"
    },
    {
      "anonymous": false,
      "inputs": [
        {
          "indexed": false,
          "name": "debug",
          "type": "string"
        }
      ],
      "name": "debugString2",
      "type": "event"
    },
    {
      "anonymous": false,
      "inputs": [
        {
          "indexed": false,
          "name": "debug",
          "type": "uint256"
        }
      ],
      "name": "debugInt",
      "type": "event"
    },
    {
      "anonymous": false,
      "inputs": [],
      "name": "gothere",
      "type": "event"
    },
    {
      "anonymous": false,
      "inputs": [
        {
          "indexed": false,
          "name": "boolean",
          "type": "bool"
        }
      ],
      "name": "debugBool",
      "type": "event"
    },
    {
      "constant": false,
      "inputs": [
        {
          "name": "parts",
          "type": "string"
        },
        {
          "name": "_ipfsHash",
          "type": "string"
        }
      ],
      "name": "notify",
      "outputs": [],
      "payable": true,
      "stateMutability": "payable",
      "type": "function"
    },
    {
      "constant": false,
      "inputs": [
        {
          "name": "_resourceName",
          "type": "string"
        },
        {
          "name": "_partNames",
          "type": "string"
        }
      ],
      "name": "addResource",
      "outputs": [],
      "payable": false,
      "stateMutability": "nonpayable",
      "type": "function"
    },
    {
      "constant": true,
      "inputs": [],
      "name": "myResources",
      "outputs": [
        {
          "name": "",
          "type": "string"
        }
      ],
      "payable": false,
      "stateMutability": "view",
      "type": "function"
    },
    {
      "constant": false,
      "inputs": [
        {
          "name": "part",
          "type": "string"
        },
        {
          "name": "_whitelistedUser",
          "type": "address"
        },
        {
          "name": "state",
          "type": "bool"
        }
      ],
      "name": "whitelistUser",
      "outputs": [],
      "payable": false,
      "stateMutability": "nonpayable",
      "type": "function"
    },
    {
      "constant": false,
      "inputs": [],
      "name": "getRequests",
      "outputs": [
        {
          "name": "",
          "type": "bool[]"
        },
        {
          "name": "",
          "type": "address[]"
        },
        {
          "name": "",
          "type": "uint256"
        }
      ],
      "payable": false,
      "stateMutability": "nonpayable",
      "type": "function"
    },
    {
      "constant": true,
      "inputs": [],
      "name": "seeRequests",
      "outputs": [
        {
          "name": "",
          "type": "bool[]"
        },
        {
          "name": "",
          "type": "address[]"
        },
        {
          "name": "",
          "type": "uint256"
        }
      ],
      "payable": false,
      "stateMutability": "view",
      "type": "function"
    },
    {
      "constant": false,
      "inputs": [
        {
          "name": "part",
          "type": "string"
        }
      ],
      "name": "getSubparts",
      "outputs": [
        {
          "name": "",
          "type": "string"
        }
      ],
      "payable": false,
      "stateMutability": "nonpayable",
      "type": "function"
    },
    {
      "constant": false,
      "inputs": [
        {
          "name": "part",
          "type": "string"
        }
      ],
      "name": "splitSubparts",
      "outputs": [],
      "payable": false,
      "stateMutability": "nonpayable",
      "type": "function"
    }
  ],
  "bytecode": "0x608060405234801561001057600080fd5b50336000806101000a81548173ffffffffffffffffffffffffffffffffffffffff021916908373ffffffffffffffffffffffffffffffffffffffff16021790555061261b806100606000396000f30060806040526004361061008e576000357c0100000000000000000000000000000000000000000000000000000000900463ffffffff1680632532e6ac146100935780637d086bea1461014e57806387259b09146101b75780638813ce12146102995780638d2250301461035457806395a902f5146104035780639c6cf53e14610498578063b35c632014610528575b600080fd5b34801561009f57600080fd5b506100a86105ca565b604051808060200180602001848152602001838103835286818151815260200191508051906020019060200280838360005b838110156100f55780820151818401526020810190506100da565b50505050905001838103825285818151815260200191508051906020019060200280838360005b8381101561013757808201518184015260208101905061011c565b505050509050019550505050505060405180910390f35b34801561015a57600080fd5b506101b5600480360381019080803590602001908201803590602001908080601f01602080910402602001604051908101604052809392919081815260200183838082843782019150505050505091929192905050506107b5565b005b3480156101c357600080fd5b5061021e600480360381019080803590602001908201803590602001908080601f0160208091040260200160405190810160405280939291908181526020018383808284378201915050505050509192919290505050610b72565b6040518080602001828103825283818151815260200191508051906020019080838360005b8381101561025e578082015181840152602081019050610243565b50505050905090810190601f16801561028b5780820380516001836020036101000a031916815260200191505b509250505060405180910390f35b3480156102a557600080fd5b506102ae610c82565b604051808060200180602001848152602001838103835286818151815260200191508051906020019060200280838360005b838110156102fb5780820151818401526020810190506102e0565b50505050905001838103825285818151815260200191508051906020019060200280838360005b8381101561033d578082015181840152602081019050610322565b505050509050019550505050505060405180910390f35b34801561036057600080fd5b50610401600480360381019080803590602001908201803590602001908080601f0160208091040260200160405190810160405280939291908181526020018383808284378201915050505050509192919290803590602001908201803590602001908080601f0160208091040260200160405190810160405280939291908181526020018383808284378201915050505050509192919290505050610eff565b005b34801561040f57600080fd5b50610496600480360381019080803590602001908201803590602001908080601f0160208091040260200160405190810160405280939291908181526020018383808284378201915050505050509192919290803573ffffffffffffffffffffffffffffffffffffffff16906020019092919080351515906020019092919050505061139e565b005b3480156104a457600080fd5b506104ad611600565b6040518080602001828103825283818151815260200191508051906020019080838360005b838110156104ed5780820151818401526020810190506104d2565b50505050905090810190601f16801561051a5780820380516001836020036101000a031916815260200191505b509250505060405180910390f35b6105c8600480360381019080803590602001908201803590602001908080601f0160208091040260200160405190810160405280939291908181526020018383808284378201915050505050509192919290803590602001908201803590602001908080601f01602080910402602001604051908101604052809392919081815260200183838082843782019150505050505091929192905050506116df565b005b606080600080606080600080600360003373ffffffffffffffffffffffffffffffffffffffff1673ffffffffffffffffffffffffffffffffffffffff1681526020019081526020016000209450848054905060405190808252806020026020018201604052801561064a5781602001602082028038833980820191505090505b50935084805490506040519080825280602002602001820160405280156106805781602001602082028038833980820191505090505b50925060009150600090505b84805490508110156107a25784818154811015156106a657fe5b906000526020600020906005020160000160009054906101000a900460ff1684828151811015156106d357fe5b906020019060200201901515908115158152505084818154811015156106f557fe5b906000526020600020906005020160020160009054906101000a900473ffffffffffffffffffffffffffffffffffffffff16838281518110151561073557fe5b9060200190602002019073ffffffffffffffffffffffffffffffffffffffff16908173ffffffffffffffffffffffffffffffffffffffff1681525050848181548110151561077f57fe5b90600052602060002090600502016003015482019150808060010191505061068c565b8383839750975097505050505050909192565b6107bd6123c2565b6107c56123c2565b606060006108d86001866040518082805190602001908083835b60208310151561080457805182526020820191506020810190506020830392506107df565b6001836020036101000a03801982511681845116808217855250505050505090500191505090815260200160405180910390206002018054600181600116156101000203166002900480601f0160208091040260200160405190810160405280929190818152602001828054600181600116156101000203166002900480156108ce5780601f106108a3576101008083540402835291602001916108ce565b820191906000526020600020905b8154815290600101906020018083116108b157829003601f168201915b5050505050612050565b93506109186040805190810160405280600181526020017f2000000000000000000000000000000000000000000000000000000000000000815250612050565b92507fcea289db3c38a33e9c6c365141bdf93e7eca7882710e23dacaedd9301bd23daa6001610950858761207e90919063ffffffff16565b016040518082815260200191505060405180910390a1600161097b848661207e90919063ffffffff16565b016040519080825280602002602001820160405280156109af57816020015b606081526020019060019003908161099a5790505b509150600090505b8151811015610a03576109db6109d684866120f590919063ffffffff16565b61210f565b82828151811015156109e957fe5b9060200190602002018190525080806001019150506109b7565b7fb6d929cf1fe5fa86cd77b7dd8b4eff68efd24e69c6e0e8618a2ee1c6e64a4b82826000815181101515610a3357fe5b906020019060200201516040518080602001828103825283818151815260200191508051906020019080838360005b83811015610a7d578082015181840152602081019050610a62565b50505050905090810190601f168015610aaa5780820380516001836020036101000a031916815260200191505b509250505060405180910390a17fc1f6b44d635a29f1051d306f9bf38ddef06214d4fb782a58b3f2f814cfcab1b1826001815181101515610ae757fe5b906020019060200201516040518080602001828103825283818151815260200191508051906020019080838360005b83811015610b31578082015181840152602081019050610b16565b50505050905090810190601f168015610b5e5780820380516001836020036101000a031916815260200191505b509250505060405180910390a15050505050565b60606001826040518082805190602001908083835b602083101515610bac5780518252602082019150602081019050602083039250610b87565b6001836020036101000a03801982511681845116808217855250505050505090500191505090815260200160405180910390206002018054600181600116156101000203166002900480601f016020809104026020016040519081016040528092919081815260200182805460018160011615610100020316600290048015610c765780601f10610c4b57610100808354040283529160200191610c76565b820191906000526020600020905b815481529060010190602001808311610c5957829003601f168201915b50505050509050919050565b606080600080606080600080600360003373ffffffffffffffffffffffffffffffffffffffff1673ffffffffffffffffffffffffffffffffffffffff16815260200190815260200160002094508480549050604051908082528060200260200182016040528015610d025781602001602082028038833980820191505090505b5093508480549050604051908082528060200260200182016040528015610d385781602001602082028038833980820191505090505b50925060009150600090505b8480549050811015610e5a578481815481101515610d5e57fe5b906000526020600020906005020160000160009054906101000a900460ff168482815181101515610d8b57fe5b90602001906020020190151590811515815250508481815481101515610dad57fe5b906000526020600020906005020160020160009054906101000a900473ffffffffffffffffffffffffffffffffffffffff168382815181101515610ded57fe5b9060200190602002019073ffffffffffffffffffffffffffffffffffffffff16908173ffffffffffffffffffffffffffffffffffffffff16815250508481815481101515610e3757fe5b906000526020600020906005020160030154820191508080600101915050610d44565b3373ffffffffffffffffffffffffffffffffffffffff166108fc839081150290604051600060405180830381858888f19350505050158015610ea0573d6000803e3d6000fd5b50600360003373ffffffffffffffffffffffffffffffffffffffff1673ffffffffffffffffffffffffffffffffffffffff1681526020019081526020016000206000610eec91906123dc565b8383839750975097505050505050909192565b60608260608190506000815114151515610f1857600080fd5b60006001866040518082805190602001908083835b602083101515610f525780518252602082019150602081019050602083039250610f2d565b6001836020036101000a038019825116818451168082178552505050505050905001915050908152602001604051809103902060000160009054906101000a900473ffffffffffffffffffffffffffffffffffffffff1673ffffffffffffffffffffffffffffffffffffffff161415611397576060604051908101604052803373ffffffffffffffffffffffffffffffffffffffff168152602001868152602001858152506001866040518082805190602001908083835b60208310151561102f578051825260208201915060208101905060208303925061100a565b6001836020036101000a038019825116818451168082178552505050505050905001915050908152602001604051809103902060008201518160000160006101000a81548173ffffffffffffffffffffffffffffffffffffffff021916908373ffffffffffffffffffffffffffffffffffffffff16021790555060208201518160010190805190602001906110c5929190612400565b5060408201518160020190805190602001906110e2929190612400565b5090505061113e6110f286612050565b6111306040805190810160405280600181526020017f2000000000000000000000000000000000000000000000000000000000000000815250612050565b61217190919063ffffffff16565b925061123a61114c84612050565b61122c600260003373ffffffffffffffffffffffffffffffffffffffff1673ffffffffffffffffffffffffffffffffffffffff1681526020019081526020016000208054600181600116156101000203166002900480601f0160208091040260200160405190810160405280929190818152602001828054600181600116156101000203166002900480156112225780601f106111f757610100808354040283529160200191611222565b820191906000526020600020905b81548152906001019060200180831161120557829003601f168201915b5050505050612050565b61217190919063ffffffff16565b600260003373ffffffffffffffffffffffffffffffffffffffff1673ffffffffffffffffffffffffffffffffffffffff168152602001908152602001600020908051906020019061128c929190612480565b507fbee898fd9a0ce1cf7819a71a023f4dcd8c3b8882d69e23409cbc709086385f368585604051808060200180602001838103835285818151815260200191508051906020019080838360005b838110156112f45780820151818401526020810190506112d9565b50505050905090810190601f1680156113215780820380516001836020036101000a031916815260200191505b50838103825284818151815260200191508051906020019080838360005b8381101561135a57808201518184015260208101905061133f565b50505050905090810190601f1680156113875780820380516001836020036101000a031916815260200191505b5094505050505060405180910390a15b5050505050565b823373ffffffffffffffffffffffffffffffffffffffff166001826040518082805190602001908083835b6020831015156113ee57805182526020820191506020810190506020830392506113c9565b6001836020036101000a038019825116818451168082178552505050505050905001915050908152602001604051809103902060000160009054906101000a900473ffffffffffffffffffffffffffffffffffffffff1673ffffffffffffffffffffffffffffffffffffffff1614151561146757600080fd5b816001856040518082805190602001908083835b6020831015156114a0578051825260208201915060208101905060208303925061147b565b6001836020036101000a038019825116818451168082178552505050505050905001915050908152602001604051809103902060030160008573ffffffffffffffffffffffffffffffffffffffff1673ffffffffffffffffffffffffffffffffffffffff16815260200190815260200160002060006101000a81548160ff0219169083151502179055507f718fac2b2c4eb816da609566da47952fe927a2af736870a471eefdd7b0f161ea848460405180806020018373ffffffffffffffffffffffffffffffffffffffff1673ffffffffffffffffffffffffffffffffffffffff168152602001828103825284818151815260200191508051906020019080838360005b838110156115bf5780820151818401526020810190506115a4565b50505050905090810190601f1680156115ec5780820380516001836020036101000a031916815260200191505b50935050505060405180910390a150505050565b6060600260003373ffffffffffffffffffffffffffffffffffffffff1673ffffffffffffffffffffffffffffffffffffffff1681526020019081526020016000208054600181600116156101000203166002900480601f0160208091040260200160405190810160405280929190818152602001828054600181600116156101000203166002900480156116d55780601f106116aa576101008083540402835291602001916116d5565b820191906000526020600020905b8154815290600101906020018083116116b857829003601f168201915b5050505050905090565b60006116e96123c2565b6116f16123c2565b606060008060006001896040518082805190602001908083835b602083101515611730578051825260208201915060208101905060208303925061170b565b6001836020036101000a038019825116818451168082178552505050505050905001915050908152602001604051809103902096507f6acf0d4da33106edf45844ed2d57906a70ff4a5884426a93afeb78eb942523da60405160405180910390a17fd0df827659790fcd56f02362f2748e46f75c7c5ecab344799d45d2c9aae155df8760030160003373ffffffffffffffffffffffffffffffffffffffff1673ffffffffffffffffffffffffffffffffffffffff16815260200190815260200160002060009054906101000a900460ff16604051808215151515815260200191505060405180910390a18660030160003373ffffffffffffffffffffffffffffffffffffffff1673ffffffffffffffffffffffffffffffffffffffff16815260200190815260200160002060009054906101000a900460ff161561204557600360008860000160009054906101000a900473ffffffffffffffffffffffffffffffffffffffff1673ffffffffffffffffffffffffffffffffffffffff1673ffffffffffffffffffffffffffffffffffffffff16815260200190815260200160002060a060405190810160405280600115158152602001896001018054600181600116156101000203166002900480601f01602080910402602001604051908101604052809291908181526020018280546001816001161561010002031660029004801561197e5780601f106119535761010080835404028352916020019161197e565b820191906000526020600020905b81548152906001019060200180831161196157829003601f168201915b505050505081526020013373ffffffffffffffffffffffffffffffffffffffff1681526020013481526020018a8152509080600181540180825580915050906001820390600052602060002090600502016000909192909190915060008201518160000160006101000a81548160ff0219169083151502179055506020820151816001019080519060200190611a15929190612400565b5060408201518160020160006101000a81548173ffffffffffffffffffffffffffffffffffffffff021916908373ffffffffffffffffffffffffffffffffffffffff160217905550606082015181600301556080820151816004019080519060200190611a83929190612400565b505050507fe67cf504dbe5723ab143d19d0d13d5cc8dfadb97bbefe091aa15fa384a1bb356876001018860000160009054906101000a900473ffffffffffffffffffffffffffffffffffffffff1660405180806020018373ffffffffffffffffffffffffffffffffffffffff1673ffffffffffffffffffffffffffffffffffffffff168152602001828103825284818154600181600116156101000203166002900481526020019150805460018160011615610100020316600290048015611b8c5780601f10611b6157610100808354040283529160200191611b8c565b820191906000526020600020905b815481529060010190602001808311611b6f57829003601f168201915b5050935050505060405180910390a1611c40876002018054600181600116156101000203166002900480601f016020809104026020016040519081016040528092919081815260200182805460018160011615610100020316600290048015611c365780601f10611c0b57610100808354040283529160200191611c36565b820191906000526020600020905b815481529060010190602001808311611c1957829003601f168201915b5050505050612050565b9550611c806040805190810160405280600181526020017f2000000000000000000000000000000000000000000000000000000000000000815250612050565b94506001611c97868861207e90919063ffffffff16565b01604051908082528060200260200182016040528015611ccb57816020015b6060815260200190600190039081611cb65790505b509350600092505b8351831015611d1f57611cf7611cf286886120f590919063ffffffff16565b61210f565b8484815181101515611d0557fe5b906020019060200201819052508280600101935050611cd3565b600091505b835182101561200c5760018483815181101515611d3d57fe5b906020019060200201516040518082805190602001908083835b602083101515611d7c5780518252602082019150602081019050602083039250611d57565b6001836020036101000a03801982511681845116808217855250505050505090500191505090815260200160405180910390209050600360008260000160009054906101000a900473ffffffffffffffffffffffffffffffffffffffff1673ffffffffffffffffffffffffffffffffffffffff1673ffffffffffffffffffffffffffffffffffffffff16815260200190815260200160002060a060405190810160405280600015158152602001836001018054600181600116156101000203166002900480601f016020809104026020016040519081016040528092919081815260200182805460018160011615610100020316600290048015611ec15780601f10611e9657610100808354040283529160200191611ec1565b820191906000526020600020905b815481529060010190602001808311611ea457829003601f168201915b505050505081526020018960000160009054906101000a900473ffffffffffffffffffffffffffffffffffffffff1673ffffffffffffffffffffffffffffffffffffffff1681526020016000815260200160206040519081016040528060008152508152509080600181540180825580915050906001820390600052602060002090600502016000909192909190915060008201518160000160006101000a81548160ff0219169083151502179055506020820151816001019080519060200190611f8d929190612400565b5060408201518160020160006101000a81548173ffffffffffffffffffffffffffffffffffffffff021916908373ffffffffffffffffffffffffffffffffffffffff160217905550606082015181600301556080820151816004019080519060200190611ffb929190612400565b505050508180600101925050611d24565b7f2c5c836884c5046594243609b073fc2c2e126307f725d15c77b95ef9dc101e5b84516040518082815260200191505060405180910390a15b505050505050505050565b6120586123c2565b600060208301905060408051908101604052808451815260200182815250915050919050565b60008082600001516120a285600001518660200151866000015187602001516121f3565b0190505b8360000151846020015101811115156120ee57818060010192505082600001516120e68560200151830386600001510383866000015187602001516121f3565b0190506120a6565b5092915050565b6120fd6123c2565b6121088383836122d9565b5092915050565b606080600083600001516040519080825280601f01601f19166020018201604052801561214b5781602001602082028038833980820191505090505b5091506020820190506121678185602001518660000151612377565b8192505050919050565b606080600083600001518560000151016040519080825280601f01601f1916602001820160405280156121b35781602001602082028038833980820191505090505b5091506020820190506121cf8186602001518760000151612377565b6121e88560000151820185602001518660000151612377565b819250505092915050565b60008060008060008060008060008b97508c8b1115156122c35760208b11151561227d5760018b60200360080260020a03196001029550858a511694508a8d8d010393508588511692505b84600019168360001916141515612275578388101515612262578c8c0198506122c9565b878060010198505085885116925061223e565b8798506122c9565b8a8a209150600096505b8a8d03871115156122c2578a882090508060001916826000191614156122af578798506122c9565b6001880197508680600101975050612287565b5b8c8c0198505b5050505050505050949350505050565b6122e16123c2565b60006122ff85600001518660200151866000015187602001516121f3565b9050846020015183602001818152505084602001518103836000018181525050846000015185602001510181141561234157600085600001818152505061236c565b8360000151836000015101856000018181510391508181525050836000015181018560200181815250505b829150509392505050565b60005b60208210151561239f578251845260208401935060208301925060208203915061237a565b6001826020036101000a0390508019835116818551168181178652505050505050565b604080519081016040528060008152602001600081525090565b50805460008255600502906000526020600020908101906123fd9190612500565b50565b828054600181600116156101000203166002900490600052602060002090601f016020900481019282601f1061244157805160ff191683800117855561246f565b8280016001018555821561246f579182015b8281111561246e578251825591602001919060010190612453565b5b50905061247c9190612582565b5090565b828054600181600116156101000203166002900490600052602060002090601f016020900481019282601f106124c157805160ff19168380011785556124ef565b828001600101855582156124ef579182015b828111156124ee5782518255916020019190600101906124d3565b5b5090506124fc9190612582565b5090565b61257f91905b8082111561257b57600080820160006101000a81549060ff021916905560018201600061253391906125a7565b6002820160006101000a81549073ffffffffffffffffffffffffffffffffffffffff0219169055600382016000905560048201600061257291906125a7565b50600501612506565b5090565b90565b6125a491905b808211156125a0576000816000905550600101612588565b5090565b90565b50805460018160011615610100020316600290046000825580601f106125cd57506125ec565b601f0160209004906000526020600020908101906125eb9190612582565b5b505600a165627a7a7230582075ca8b050a04d71994553ec27807851f813982f50e3364c41da5731481a9660f0029",
  "source": "pragma solidity ^0.4.23;\r\n// Use https://github.com/Arachnid/solidity-stringutils for string splitting\r\n// Note that I technically don't need this.. if I turn Resource.parts into an array\r\n\r\n// Change this later to point to downloaded local file\r\nimport \"./strings.sol\";\r\n\r\n\r\n// TODO: \r\n// 0) Create a function that resets EVERYTHING\r\n//  i) Every update to the contract state should have a corresponding event tied to it\r\n//  ii) Add openzeppellin split amount integration (do by saving payees in an array first)\r\n// iii) Add ipfs\r\n    // iii-a) https://github.com/ipfs/js-ipfs/tree/master/examples, https://github.com/ipfs/js-ipfs/tree/master/examples/ipfs-101 \r\n// iv) Add check that part (make this a modifier) and subparts (check in-function) exist, for notify\r\n\r\n// Stretch Goals\r\n\r\n// Split up payments for multiple people if more than one part specified.\r\n\r\n\r\n\r\n// In progress: Switch whitelist users to whitelist user. Ensure that the tests are also changed\r\n\r\ncontract SupplyChainEP {\r\n    using strings for *;\r\n    \r\n    /* set owner */\r\n    address owner;\r\n\r\n    /* getting information from resource name */\r\n    mapping (string => Resource) resourceInfo;\r\n\r\n    struct Resource {\r\n        address source;\r\n        string name; // Note that IRL, these could be EPCs\r\n        string parts; // space separated names of parts\r\n        mapping (address => bool) whitelistedUsers;\r\n    }\r\n\r\n    mapping (address => string) resources;\r\n\r\n    mapping (address => Request[]) requests;\r\n\r\n    struct Request {\r\n        bool directRequest; // If it's just a warning, then this is false\r\n        string resourceName;\r\n        address requester;\r\n        uint reward;\r\n        string ipfsHash;\r\n    }\r\n\r\n    /* Events */\r\n    event requestSent(string resourceName, address _address);\r\n    event warningSent(uint numberOfWarnings);\r\n    event userWhitelisted(string part, address whitelisteduser);\r\n    event resourceAdded(string part, string subparts);\r\n    event debugString(string debug);\r\n    event debugString2(string debug);\r\n    event debugInt(uint debug);\r\n\r\n    event gothere();\r\n    event debugBool(bool boolean);\r\n\r\n    /* Modifiers */\r\n    modifier verifyCaller (address _address) {require (msg.sender == _address); _;}\r\n    modifier isSource (string part) {require (resourceInfo[part].source == msg.sender); _;}\r\n    modifier isOwner () {require(msg.sender == owner); _;}\r\n    modifier notEmpty (string _string) {bytes memory stringTest = bytes(_string); require (stringTest.length != 0); _;}\r\n\r\n    constructor() public {\r\n        owner = msg.sender;\r\n    }\r\n\r\n    // When notifying people, you also send warnings to one level further down\r\n    function notify(string parts, string _ipfsHash)\r\n        payable\r\n        public\r\n    {   \r\n        Resource storage r = resourceInfo[parts];\r\n        emit gothere();\r\n        emit debugBool(r.whitelistedUsers[msg.sender]);\r\n\r\n        if(r.whitelistedUsers[msg.sender]) {\r\n            requests[r.source].push(Request({\r\n                directRequest: true,\r\n                resourceName: r.name,\r\n                requester: msg.sender,\r\n                reward: msg.value,\r\n                ipfsHash: _ipfsHash\r\n            }));\r\n            emit requestSent(r.name, r.source);\r\n            // Push warnings to each of the subparts\r\n            var s = r.parts.toSlice();\r\n            var delim = \" \".toSlice();\r\n            var subparts = new string[](s.count(delim) + 1);\r\n            for(uint j = 0; j < subparts.length; j++) {\r\n                subparts[j] = s.split(delim).toString();\r\n            }\r\n            for (uint i = 0; i < subparts.length; i++) {\r\n                Resource storage r2 = resourceInfo[subparts[i]];\r\n                requests[r2.source].push(Request({\r\n                    directRequest: false,\r\n                    resourceName: r2.name,\r\n                    requester: r.source, // We give the name of the manufacturer that is one up, so as to protect name of user of part higher up\r\n                    reward: 0,\r\n                    ipfsHash: \"\"\r\n                }));\r\n            }\r\n            emit warningSent(subparts.length);\r\n        }\r\n    }\r\n\r\n    // Add a resource to the blockchain with your address\r\n    // part names should be space separated\r\n    function addResource(string _resourceName, string _partNames)\r\n        public\r\n        notEmpty(_resourceName)\r\n    {\r\n        // First see if resource is empty\r\n        if (resourceInfo[_resourceName].source == 0) {\r\n            resourceInfo[_resourceName] = Resource({source: msg.sender, name: _resourceName, parts: _partNames});\r\n            \r\n            // Then add to owner's string of resources\r\n            var s = \" \".toSlice().concat(_resourceName.toSlice());\r\n            resources[msg.sender] = resources[msg.sender].toSlice().concat(s.toSlice());\r\n\r\n            // Emit event\r\n            emit resourceAdded(_resourceName, _partNames);\r\n        }\r\n    }\r\n\r\n    function myResources()\r\n        public\r\n        view\r\n        returns(string)\r\n    {\r\n        return resources[msg.sender];\r\n    }\r\n    \r\n    // This is for resource manufacturers to whitelist companies in order to allow them to send\r\n    // errors. Set state to 'true' if you want to whitelist users, and 'false' if you want\r\n    // to remove them from the whitelist\r\n    function whitelistUser(string part, address _whitelistedUser, bool state)\r\n        public\r\n        isSource(part)\r\n    {\r\n        // Save the reference to the mapping inside the resource struct\r\n        resourceInfo[part].whitelistedUsers[_whitelistedUser] = state;\r\n        emit userWhitelisted(part, _whitelistedUser);\r\n    }\r\n\r\n\r\n    // function whitelistUser(string part, address _whitelistedUsers, bool state)\r\n    //     public\r\n    //     isSource(part)\r\n    // {\r\n    //     // Save the reference to the mapping inside the resource struct\r\n    //     mapping (address => bool) map = resourceInfo[part].whitelistedUsers;\r\n\r\n    //     // Iterate through the given whitelisted users and save the info in the resource\r\n    //     for (uint i = 0; i < _whitelistedUsers.length; i++) {\r\n    //         map[_whitelistedUsers[i]] = state;\r\n    //     }\r\n    // }\r\n\r\n\r\n\r\n    // This is for manufacturers to receive their requests and receive their payments\r\n    // This would eventually delete all the requests by the end of the transaction\r\n    function getRequests()\r\n        public\r\n        returns (bool[], address[], uint)\r\n    {\r\n        Request[] storage r = requests[msg.sender];\r\n        bool[] memory isWarning = new bool[](r.length);\r\n        address[] memory notifiers = new address[](r.length);\r\n        uint payment = 0;\r\n        for(uint i = 0; i < r.length; i++) {\r\n            isWarning[i] = r[i].directRequest;\r\n            notifiers[i] = r[i].requester;\r\n            payment = payment + r[i].reward;\r\n        }\r\n        msg.sender.transfer(payment);\r\n        delete requests[msg.sender];\r\n        return (isWarning, notifiers, payment);\r\n    }\r\n\r\n    function seeRequests()\r\n        view\r\n        public\r\n        returns (bool[], address[], uint)\r\n    {\r\n        Request[] storage r = requests[msg.sender];\r\n        bool[] memory isWarning = new bool[](r.length);\r\n        address[] memory notifiers = new address[](r.length);\r\n        uint payment = 0;\r\n        for(uint i = 0; i < r.length; i++) {\r\n            isWarning[i] = r[i].directRequest;\r\n            notifiers[i] = r[i].requester;\r\n            payment = payment + r[i].reward;\r\n        }\r\n        return (isWarning, notifiers, payment);\r\n    }\r\n\r\n    // For Debugging\r\n    function getSubparts(string part)\r\n        public\r\n        returns (string)\r\n    {\r\n        return resourceInfo[part].parts;\r\n    }\r\n\r\n    // For Debugging. To be tested on a part that has two subparts\r\n    function splitSubparts(string part)\r\n        public\r\n    {\r\n        var s = resourceInfo[part].parts.toSlice();\r\n        var delim = \" \".toSlice();\r\n        emit debugInt(s.count(delim) + 1);\r\n        var subparts = new string[](s.count(delim) + 1);\r\n        for(uint i = 0; i < subparts.length; i++) {\r\n            subparts[i] = s.split(delim).toString();\r\n        }\r\n        emit debugString(subparts[0]);\r\n        emit debugString2(subparts[1]);\r\n    }\r\n}",
  "sourcePath": "C:\\Users\\alexm\\OneDrive\\Desktop\\fin\\contracts\\SupplyChainEP.sol",
  "compiler": {
    "name": "solc",
    "version": "0.4.24+commit.e67f0147.Emscripten.clang"
  },
  "schemaVersion": "2.0.0",
  "updatedAt": "2018-08-13T12:04:43.887Z"
}